41408981****6257    JULIA ISABEL MONTES BELLIDO                          JR.CORONEL ZEGARRA                                   242                                      AGR                              L0011JESUS MARIA                   LIMA                          LIMA                          PERU                                    150113JR.CORONEL ZEGARRA                                   242                                      AGR                              L0011JESUS MARIA                   LIMA                          LIMA                          PERU                                    1501130012650537000000147148750000001999942700000012650537000000147148750000L07234125   0289000302-07-201800110100535001013012111748    0486         S11 3T 180703111748  N180703111748               1
41408981****7607    MANUEL HIGA MAESHIRO                                 AV.LIMA                                              350     CASA 21 A 3CDRAS DE JULIO C TELLOURBRESIDENCIAL LIMA SAN MIGUEL   L0032SAN MIGUEL                    LIMA                          LIMA                          PERU                                    150136AV.LIMA                                              350     CASA 21 A 3CDRAS DE JULIO C TELLOURBRESIDENCIAL LIMA SAN MIGU     L0032SAN MIGUEL                    LIMA                          LIMA                          PERU                                    1501360012631925000000199814220092001566182200000012631925000000199814220092L08731303   0091663302-07-201800110107065001058928111816    0107         S11 3T 180703111816  N180703111816               1
41408981****4337    NICOLAS JORGE AUDIBERT PINTO                         AV.CERROS DE CAMACHO                                 1290    CASA 2                           NA NO APLICA                     L0033STGO.DE SURCO                 LIMA                          LIMA                          PERU                                    150140AV.CERROS DE CAMACHO                                 1290    CASA 2                           NA NO APLICA                     L0033STGO.DE SURCO                 LIMA                          LIMA                          PERU                                    1501400014352905000000171570000000001993563600600014352905000000171570000000L08194525   2153785202-07-201800110109665001247284111764    0109         S11 3T 180703111764  N0011010966500124728411807030
41408981****4345    MARIA MERCEDES VELAYOS ARREDONDO                     AV.CERROS DE CAMACHO                                 1290    CASA 2                           NA NO APLICA                     L0033STGO.DE SURCO                 LIMA                          LIMA                          PERU                                    150140AV.CERROS DE CAMACHO                                 1290    INT 2                            URBMONTERRICO CHICO              L0033STGO.DE SURCO                 LIMA                          LIMA                          PERU                                    1501400014352905000000195471200090001998176000260014352905000000199811410033L07214786   0201713002-07-201800110109665001247284111765    0109         S11 3D 180703111765  N0011010966500124728411807030
41408981****5893    CESAR ANTONIO BERAMENDI GALDOS                       JR.EUGENIO DE LA TORRE                               125                                      URBMARANGA                       L0032SAN MIGUEL                    LIMA                          LIMA                          PERU                                    150136CALDOMINGO CUETO                                     120                                      NA NO APLICA                     L0011JESUS MARIA                   LIMA                          LIMA                          PERU                                    1501130012647726000000199992060093          00000012656000000000000000000000L09279035   2037489602-07-201800110112015001003349111841    0112         S11 3T 180703111841  N180703111841               1
41408981****6631    IGNEZ GIMENES DOS SANTOS DE SALVAT                   JR.GRAU                                              103     J                                NA NO APLICA                     L0004BARRANCO                      LIMA                          LIMA                          PERU                                    150104JR.GRAU                                              103     J       NO TIENE                 NA NO APLICA                     L0004BARRANCO                      LIMA                          LIMA                          PERU                                    1501040012474346000000199943140014          00000012474346000000000000000000L06626685   0503654202-07-201800110114675001000480111782    0114         S11 3T 180703111782  N180703111782               1
41408981****9991    EDGARDO ARCADIO MEZA AMADO                           CALMCAL RAMON CASTILLA                               MZ M    LT 7    ALT CDRA 50 AV PERUC     URBJORGE CHAVEZ                  C0001CALLAO                        CALLAO                        CALLAO                        PERU                                    070101JR.LETICIA                                           520                                      NA NO APLICA                     L0013LA VICTORIA                   LIMA                          LIMA                          PERU                                    1501150019879463007400197632710010001945351000270019879463007100000000000000L22862749   2322239802-07-201800110115305001506355111802    0112         S11 3T 180703111802  N180703111802               1
41408981****8133    WILMER EDER RIVEROS VALENZUELA                       CALS N                                               MZ C    LT 21                            URBJARDINES DE SAN FRNACISCO     L0025RIMAC                         LIMA                          LIMA                          PERU                                    150128CALDOMINGO CUETO                                     MZ C    LT 21                            NA NO APLICA                     L0025RIMAC                         LIMA                          LIMA                          PERU                                    1501280013810020000000196161900080001999988700860013818363000000194288480017L08667223   1397207902-07-201800110115395001084450111770    0115         S11 3T 180703111770  N180703111770               1
41408981****2671    MARIA CECILIA FLORES DE MARREROS                     CALNEPTUNO                                           172             ALT 47 AV.TOM?S MARSANO  URBSAN ROQUE                     L0033STGO.DE SURCO                 LIMA                          LIMA                          PERU                                    150140AV.BENAVIDES                                         661     PISO 10                          NA NO APLICA                     L0018MIRAFLORES                    LIMA                          LIMA                          PERU                                    15012200155773180000          0000          00000012109436000000000000000000L08798014   0876998202-07-201800110117955001846475111763    0486         S11 3D 180703111763  N180703111763               1
41408981****8715    RENZO EDUARDO BENVENUTO HAASE                        CALAGUADA BLANCA                                     189     302                              ZNASURCO                         L0033STGO.DE SURCO                 LIMA                          LIMA                          PERU                                    150140CALAGUADA BLANCA                                     371                                      NA NO APLICA                     L0027SAN ISIDRO                    LIMA                          LIMA                          PERU                                    1501310019935107001900198728990035001989006900210019872899003500000000000000L42920562   2505534702-07-201800110117985001852610111740    0486         S11 3T 180703111740  N180703111740               1
41408981****4903    CARLO GABRIEL LABO RUESTA                            JR.MADRESELVA                                        293     102     A UNA CUADRA DE SAN ANTONURBLA FLORESTA                   L0033STGO.DE SURCO                 LIMA                          LIMA                          PERU                                    150140AV.REDUCTO                                           1363            A UNA CUADRA DE SAN ANTONURBSan Antonio                   L0018MIRAFLORES                    LIMA                          LIMA                          PERU                                    1501220013442117000000161001160612001996513600050013442117000000161001160612L09429004   0287152102-07-201800110119515001001166111730    0119         S11 3T 180703111730  N180703111730               1
41408981****2078    FARAH HERMINA PEREZ SIMONS                           AV.REDUCTO                                           1330                                     NA NO APLICA                     L0018MIRAFLORES                    LIMA                          LIMA                          PERU                                    150122AV.REDUCTO                                           1330                                     NA NO APLICA                     L0018MIRAFLORES                    LIMA                          LIMA                          PERU                                    15012200198864670034          0000          000000198864670034          0000L47074503   2507616502-07-201800110119555001274782111803    0119         S11 3D 180703111803  N180703111803               1
41408981****3244    JOSE LUIS GARCIA SAAVEDRA                            CALJOSE GONZALEZ                                     787     601                              NA NO APLICA                     L0018MIRAFLORES                    LIMA                          LIMA                          PERU                                    150122CALJOSE GONZALEZ                                     787     601                              NA NO APLICA                     L0018MIRAFLORES                    LIMA                          LIMA                          PERU                                    1501220014462453000000199754110011          00000014462453000000199754110011L10805767   0411844802-07-201800110121185001002619111761    0121         S11 3T 180703111761  N0011012118500100261911807030
41408981****3251    BARBARA BIEL BERON                                   CALJOSE GONZALEZ                                     787     601                              NA NO APLICA                     L0018MIRAFLORES                    LIMA                          LIMA                          PERU                                    150122CALJOSE GONZALES                                     787     601                              NA NO APLICA                     L0018MIRAFLORES                    LIMA                          LIMA                          PERU                                    1501220014462453000000199939900074          00000014462453000000199939900074L08220385   0226366102-07-201800110121185001002619111762    0121         S11 3D 180703111762  N0011012118500100261911807030
41408981****3565    YOMO ERNESTO RODRIGUEZ ALVAREZ                       AV.TERESA GONZALES FANNING                           216                                      URBVALDIVIESO                    L0031SAN MARTIN DE PORRES          LIMA                          LIMA                          PERU                                    150135PSJVELARDE                                           164     TDA 106 CDRA 11 WILSON           NA NO APLICA                     L0001CERCADO DE LIMA               LIMA                          LIMA                          PERU                                    1501010015684336000000199032150063001998360500360019983605003600000000000000L09614371   2072924102-07-201800110123715001687299111788    0123         S11 3T 180703111788  N180703111788               1
41408981****4356    MONICA JACLYN PADILLA PABLO                          CALRIOBAMBA                                          2920                                     NA NO APLICA                     L0031SAN M. DE PORRES              LIMA                          LIMA                          PERU                                    150135CALRIOBAMBA                                          171             ERNST & YOUNG            NA NO APLICA                     L0027SAN ISIDRO                    LIMA                          LIMA                          PERU                                    15013100198360850015          0000          00000019836085001500000000000000L40993026   2199259902-07-201800110123765001365526111834    0123         S11 3T 180703111834  N0011012376500136552611807030
41408981****4364    ELIAS GENARO PADILLA ESPINOZA                        CALRIOBAMBA                                          2920                                     NA NO APLICA                     L0031SAN M. DE PORRES              LIMA                          LIMA                          PERU                                    150135JR.RIO BAMBA                                         2920                                     URBPERU                          L0031SAN M. DE PORRES              LIMA                          LIMA                          PERU                                    1501350015697609000000195976520099          00000015686685000000000000000000L08647223   2255570002-07-201800110123765001365526111835    0123         S11 3D 180703111835  N0011012376500136552611807030
41408981****7736    MARIA CECILIA CALLE GASPARY                          AV.AURELIO MIROQUESADA                               240     DPTO 402ALTURA CDRA 7 CAMINO     URBSAN ISIDRO                    L0027SAN ISIDRO                    LIMA                          LIMA                          PERU                                    150131CALMARISCAL SUCRE                                    183     201                              NA NO APLICA                     L0018MIRAFLORES                    LIMA                          LIMA                          PERU                                    1501220012217493000000199347420044          00000014210400000000000000000000L08223511   2088419002-07-201800110123785001688945111758    0123         S11 3T 180703111758  N180703111758               1
41408981****8197    RAUL ALBERTO NAVARRETE MURILLO                       AV.LOS CONSTRUCTORES                                 365                                      URBLAS ACACIAS                   L0012LA MOLINA                     LIMA                          LIMA                          PERU                                    150114AV.DE LA POESIA                                      111-155                                  NA NO APLICA                     L0041SAN BORJA                     LIMA                          LIMA                          PERU                                    1501300013481085000000199335920071001428001100000000000000000000000000000000L08062905   0132602302-07-201800110130235001185089111853    0130         S11 3T 180703111853  N180703111853               1
41408981****2813    NIDIA ISABEL VASQUEZ MENDOZA                         AV.BRASIL                                            727     1102    CUADRA 7                 NA NO APLICA                     L0011JESUS MARIA                   LIMA                          LIMA                          PERU                                    150113CALABTAO                                             MZ A1   LT 31                            NA NO APLICA                     L0007COMAS                         LIMA                          LIMA                          PERU                                    1501100014060881000000198505640014          00000014060881000000198505640014L05412727   2021423302-07-201800110142785001731232111752    0142         S11 3D 180703111752  N180703111752               1
41408981****2821    DANESSE MELISSA MEDINA MERINO                        AV.BRASIL                                            727     1102    CUADRA 7                 NA NO APLICA                     L0011JESUS MARIA                   LIMA                          LIMA                          PERU                                    150113JR.PERSEVERANCIA                                     451                                      URBPRO                           L0039LOS OLIVOS                    LIMA                          LIMA                          PERU                                    15011700199637920069          0000          00000000000000000000000000000000L40842075   2104982702-07-201800110142785001731232111753    0142         S11 3D 180703111753  N180703111753               1
41408981****2782    JORGE JULIO COLLADO VERNAL                           AV.ALAMEDA DEL CORREGIDOR                            290     MZA C   LOTE 03                  NA NO APLICA                     L0012LA MOLINA                     LIMA                          LIMA                          PERU                                    150114AV.ALAMEDA DEL CORREGIDOR                            290     MZA C   LOTE 03                  NA NO APLICA                     L0012LA MOLINA                     LIMA                          LIMA                          PERU                                    1501140013497819000000199405920024001225338600000013497819000000199405920024L07731074   0041571502-07-201800110147625001100302111815    0147         S11 3T 180703111815  N180703111815               1
41408981****2471    JUAN CARLOS BOCANEGRA ENCALADA                       AV.MANUEL ALMENARA                                   115     DPTO 401.                        URBBARRIO MEDIC Y DE LA CLIN PROPL0034SURQUILLO                     LIMA                          LIMA                          PERU                                    150141CALSAN AGUSTIN                                       489                                      NA NO APLICA                     L0034SURQUILLO                     LIMA                          LIMA                          PERU                                    1501410016554633000000196774970003001980031700810012413979000000199812700045L08778851   0354566002-07-201800110150005001001505111774    0150         S11 3T 180703111774  N180703111774               1
41408981****7987    THALIA MARINA LLALLA VIDAL                           PASDE LA CASTELLANA                                  386                                      URBLA CASTELLANA                 L0033SANTIAGO DE SURCO             LIMA                          LIMA                          PERU                                    150140AV.PASEO DE LA CASTELLANA                            386             ALT OVALO DE HIGUERETA A URBLA CASTELLANA                 L0033STGO.DE SURCO                 LIMA                          LIMA                          PERU                                    1501400012711000000000198358140026          00000012711000000000198358140026L70764310   2173158402-07-201800110150035001152376111742    0150         S11 3D 180703111742  N180703111742               1
41408981****1719    LUIS FRANCISCO CADENILLAS GALVEZ                     CALMIGUEL CORTEZ                                     145                                      URBMARANGA                       L0032SAN MIGUEL                    LIMA                          LIMA                          PERU                                    150136CALMIGUEL CORTEZ                                     145                                      URBMARANGA                       L0032SAN MIGUEL                    LIMA                          LIMA                          PERU                                    1501360014640348000000126525960000          00000014640348000000126525960000L07564814   0029044002-07-201800110151865001002922111814    0151         S11 3T 180703111814  N180703111814               1
41408981****4476    YONEL ADOLFO VARILLAS ALVAREZ                        CALDOMINGUEZ                                         482             EX MZ 6 LT 23            NA NO APLICA                     L0041SAN BORJA                     LIMA                          LIMA                          PERU                                    150130CALDOMINGUEZ                                         482             EX MZ 6 LT 23            NA NO APLICA                     L0041SAN BORJA                     LIMA                          LIMA                          PERU                                    1501300012254009000000199818040015001430080300000012254009000000199818040015L09161041   2175306802-07-201800110152635001183523111781    0152         S11 3T 180703111781  N180703111781               1
41408981****8864    BERNARDO TOLEDO ELIAS                                CALLAS CAMPANILLAS 119                               DPTO A  202     CERCA                    URBCASUARIANAS SUR               L0033STGO.DE SURCO                 LIMA                          LIMA                          PERU                                    150140JR.FRANCISCO DE CUELLAR                              136     DPTO 201                         URBMONTERRICO                    L0033STGO.DE SURCO                 LIMA                          LIMA                          PERU                                    1501400012790688000000198693710051001991894000440019869371005100000000000000L07999187   2509455102-07-201800110153485001491053111851    0153         S11 3T 180703111851  N0011015348500149105311807030
41408981****8872    YACKELINE ADELINA KOPLIN GUERRA                      CALLAS CAMPANILLAS 119                               DPTO A  202     CERCA                    URBCASUARIANAS SUR               L0033STGO.DE SURCO                 LIMA                          LIMA                          PERU                                    150140CALLAS CAMPANILLAS 119                               DPTO A  202                              URBCASUARINAS SUR                L0033SANTIAGO DE SURCO             LIMA                          LIMA                          PERU                                    1501400014371594000000199189400044          00000014371594000000199189400044L06645727   2509456202-07-201800110153485001491053111852    0153         S11 3D 180703111852  N0011015348500149105311807030
41408981****2951    PRIMITIVA ELENA QUISPE FLORES                        JR.LOS HUERTOS                                       280             ESPALDA DEL BBVA LAS FLORURBLAS FLORES DE LIMA            L0036SAN JUAN DE LURIGANCHO        LIMA                          LIMA                          PERU                                    150132AV.NICOLAS AYLLON                                    1453                                     NA NO APLICA                     L0003ATE                           LIMA                          LIMA                          PERU                                    1501030019982829002400137675450000          00000013267846000000132634280000L06609995   0424955002-07-201800110155925001000468111848    0155         S11 3T 180703111848  N180703111848               1
41408981****7969    GENARO AVALOS OVALLE                                 AV.LAS TORRES                                        225             FRENTE A RESTAURANTE LA MURBSANTA ANGELICA                L0003ATE                           LIMA                          LIMA                          PERU                                    150103AV.LAS TORRES                                        SN                                       NA NO APLICA                     L0003ATE                           LIMA                          LIMA                          PERU                                    1501030013261159000000132606670000001999008600650019990086006500000000000000L06004393   1386045902-07-201800110155925001218226111783    0155         S11 3T 180703111783  N180703111783               1
41408981****3229    JOSE RICARDO GARCIA ROSELL ACOSTA                    CALLAS MIMOSAS                                       145     201     NINGUNO                  NA NO APLICA                     L0004BARRANCO                      LIMA                          LIMA                          PERU                                    150104AV.LAS BEGONIAS                                      441     PISO 10                          NA NO APLICA                     L0027SAN ISIDRO                    LIMA                          LIMA                          PERU                                    1501310013725282000000199847210071          00000013725282000000000000000000L07841267   2099741102-07-201800110157585001387711111749    0091         S11 3D 180703111749  N180703111749               1
41408981****2370    SOLANGE NADIA CORDOVA PEZO                           CALSIN NOMBRE                                        MZ C1   LT 2    4TA                      URBPQE DE VILLA SOL              L0039LOS OLIVOS                    LIMA                          LIMA                          PERU                                    150117CALUNO                                               MZ C1   LT 2                             URBLOS PARQUS DE VILLA SOL       L0039LOS OLIVOS                    LIMA                          LIMA                          PERU                                    15011700199005830071          0000          000000199005830071          0000L74872910   2611765402-07-201800110162545001088894111813    0162         S11 3D 180703111813  N0011016254500108889411807030
41408981****6499    JUAN CARLOS CORDOVA VIVIANO                          CALSIN NOMBRE                                        MZ C1   LT 2    4TA                      URBPQE DE VILLA SOL              L0039LOS OLIVOS                    LIMA                          LIMA                          PERU                                    150117AV.AEROPUERTO                                        S N             AEROPUERTO JORGE CH      NA NO APLICA                     C0001CALLAO                        CALLAO                        CALLAO                        PERU                                    0701010015286262000000157519950000001976033800420014141000105300000000000000L07875314   1294918902-07-201800110162545001088894111726    0162         S11 3T 180703111726  N0011016254500108889411807030
41408981****6507    ELIA RUTH PEZO MARMOLEJO                             CALSIN NOMBRE                                        MZ C1   LT 2    4TA                      URBPQE DE VILLA SOL              L0039LOS OLIVOS                    LIMA                          LIMA                          PERU                                    150117CALUNO                                               MZ C1   LT 2                             URBPQE DE VILLA SOL              L0039LOS OLIVOS                    LIMA                          LIMA                          PERU                                    150117          0000          0000          00000000000000000000000000000000L07821896   2383694602-07-201800110162545001088894111727    0162         S11 3D 180703111727  N0011016254500108889411807030
41408981****8946    JOHN WILLIAM PEREZ OBREGON                           CALPUNTA ARENAS                                      247             3RA ETAPA                URBSOL DE LA MOLINA              L0012LA MOLINA                     LIMA                          LIMA                          PERU                                    150114CALPUNTA ARENAS                                      247             3RA ETAPA                URBSOL DE LA MOLINA              L0012LA MOLINA                     LIMA                          LIMA                          PERU                                    1501140013652396000000199672020019001697965400000013652396000000199672020019L08040721   0147084102-07-201800110164165001092140111830    0106         S11 3T 180703111830  N0011016416500109214011807030
41408981****8953    ELIANA DEL ROSARIO ROMERO INFANTE                    CALPUNTA ARENAS                                      247             3RA ETAPA                URBSOL DE LA MOLINA              L0012LA MOLINA                     LIMA                          LIMA                          PERU                                    150114JR.CARABAYA                                          650             INFES                    NA NO APLICA                     L0001CERCADO DE LIMA               LIMA                          LIMA                          PERU                                    1501010013685448000000199277910012          00000000000000000000000000000000L08041333   0261102302-07-201800110164165001092140111831    0106         S11 3D 180703111831  N0011016416500109214011807030
41408981****9984    TERESA YSABEL CARHUAYO CORDOVA                       CALLAS ESMERALDAS                                    253             FRENTE HOSPITAL CARRION  URBSAN ANTONIO                   C0002BELLAVISTA                    CALLAO                        CALLAO                        PERU                                    070102JR.FULGENCIO VALDEZ                                  672                                      NA NO APLICA                     L0005BRENA                         LIMA                          LIMA                          PERU                                    1501050014295636000000199794040001001949367600570019979404000100000000000000L06694091   0788321802-07-201800110164195001092841111747    0164         S11 3T 180703111747  N180703111747               1
41408981****2428    MARIA YNES PEREZ VELIZ                               CALMARISCAL RAMON CASTILLA                           855     102                              URBRES AVENIDA GENERAL           L0033STGO.DE SURCO                 LIMA                          LIMA                          PERU                                    150140AV.LA MOLINA                                         1495            SENASE                   NA NO APLICA                     L0012LA MOLINA                     LIMA                          LIMA                          PERU                                    1501140014771857000000198801060058001999206500970013133300223400000000000000L21813043   1272399702-07-201800110171645001308834111760    0171         S11 3T 180703111760  N180703111760               1
41408981****6567    MAURICIO BONNEFF VASQUEZ                             MALCISNEROS                                          516     1301                             NA NO APLICA                     L0018MIRAFLORES                    LIMA                          LIMA                          PERU                                    150122MALCISNEROS                                          516     1301                             NA NO APLICA                     L0018MIRAFLORES                    LIMA                          LIMA                          PERU                                    1501220012425635000000198912450050001997123600510019946062006300000000000000L06522484   0024277202-07-201800110179935001358037111827    0179         S11 3T 180703111827  N0011017993500135803711807030
41408981****6575    NORMA VILMA NAPURI NUNEZ DE BONNEFF                  MALCISNEROS                                          516     1301                             NA NO APLICA                     L0018MIRAFLORES                    LIMA                          LIMA                          PERU                                    150122MALCISNEROS                                          699                                      NA NO APLICA                     L0018MIRAFLORES                    LIMA                          LIMA                          PERU                                    1501220012425635000000194170440063          00000002425635000000000000000000L06522524   2064398802-07-201800110179935001358037111828    0179         S11 3D 180703111828  N0011017993500135803711807030
41408981****9422    VICENTE CHANG SAY YON                                CALJORGE LEGUIA                                      218             CENTRO COMERCIAL AUR     URBAURORA                        L0018MIRAFLORES                    LIMA                          LIMA                          PERU                                    150122CALESQ CAVENECIA-VARELA                              380             FRENTE PARQUE J.F. KENNEDNA NO APLICA                     L0018MIRAFLORES                    LIMA                          LIMA                          PERU                                    1501220012718680000000199998160016          00000014467082000000000000000000L08201658   0051367902-07-201800110179945001358428111832    0179         S11 3T 180703111832  N180703111832               1
41408981****5087    ARNOLD BOKSENBAUM LEVI                               AV.PARDO                                             930     101     NINGUNA                  NA NO APLICA                     L0018MIRAFLORES                    LIMA                          LIMA                          PERU                                    150122AV.PARDO                                             930     101                              NA NO APLICA                     L0018MIRAFLORES                    LIMA                          LIMA                          PERU                                    1501220012428490000000199815510045001446620000000012428490000000199815510045L09337588   1147001702-07-201800110182345001085975111797    0182         S11 3T 180703111797  N180703111797               1
41408981****5694    ARTURO OSCAR PORRO ACHARD                            CALJOSE NAVARRO                                      127             1A ALTURA PARQUE ARGENTINURBVISTA ALEGRE                  L0033STGO.DE SURCO                 LIMA                          LIMA                          PERU                                    150140CALJOSE NAVARRO                                      127             1A ALTURA PARQUE ARGENTINURBVISTA ALEGRE                  L0033STGO.DE SURCO                 LIMA                          LIMA                          PERU                                    1501400012736528000000199859130062001965393800390012736528000000199859130062E000016856  2232888702-07-201800110186445001164680111791    0186         S11 3T 180703111791  N180703111791               1
41408981****9972    CARMEN MARIA ALAYZA DEGOLA                           AV.DOS DE MAYO                                       945-961 1601                             NA NO APLICA                     L0027SAN ISIDRO                    LIMA                          LIMA                          PERU                                    150131AV.DOS DE MAYO                                       275                                      NA NO APLICA                     L0027SAN ISIDRO                    LIMA                          LIMA                          PERU                                    1501310019841025001100161503880000001421210600000016150300037700000000000000L07853674   0460448202-07-201800110189895001510348111778    0189         S11 3T 180703111778  N180703111778               1
41408981****8897    ANDREA LISBETH YEPES LUNA                            CALU V                                               1               CRDA7 ALCAZAR            UV.CHALET 26 F                   L0025RIMAC                         LIMA                          LIMA                          PERU                                    150128CALS N                                               1                                        UV.CHALET 26 F                   L0025RIMAC                         LIMA                          LIMA                          PERU                                    1501280014814516000000194705150007          00000014814516000000194705150007L45434837   2506588902-07-201800110189895001510372111741    0189         S11 3D 180703111741  N180703111741               1
41408981****5332    ANA DANIELA CARDENAS RODRIGUEZ                       AV.VELASCO ASTETE                                    767     DPTO 302                         NA NO APLICA                     L0041SAN BORJA                     LIMA                          LIMA                          PERU                                    150130AV.VELASCO ASTETE                                    767     DPTO 302                         NA NO APLICA                     L0041SAN BORJA                     LIMA                          LIMA                          PERU                                    1501300019816024005200163454700000          00000019816024005200163454700000L29637334   2268132702-07-201800110194875001276148111792    0194         S11 3T 180703111792  N180703111792               1
41408981****1497    ALICIA ROSA CHAPARRO SAGARNAGA                       ALMDE LOS ABANICOS                                   MZ M    LT 5    POETA DE LA RIVERA       URBLA ENCANTADA                  L0009CHORRILLOS                    LIMA                          LIMA                          PERU                                    150108AV.BOULEVARD DE SURCO                                S N                                      NA NO APLICA                     L0041SAN BORJA                     LIMA                          LIMA                          PERU                                    1501300012541140000000199900000087          00000013171700000000000000000000L07602205   0051487002-07-201800110195595001627485111798    0195         S11 3T 180703111798  N180703111798               1
41408981****4068    JAIME MARTIN GRAZIANI ROSSI                          CALS N                                               MZ B    LT 2                             URBBANCARIA                           CHINCHA ALTA                  CHINCHA                       ICA                           PERU                                    110201NA NO APLICA                                         MZ B    LT 2                             URBBANCARIA                           CHINCHA ALTA                  CHINCHA                       ICA                           PERU                                    11020100199816600084          0000          00000560261354000000199816600084L21793859   0247305402-07-201800110215125001077962111732    0215         S11 3T 180703111732  N0011021512500107796211807030
41408981****4076    MARIA CECILIA SANCHEZ GAZZO                          CALS N                                               MZ B    LT 2                             URBBANCARIA                           CHINCHA ALTA                  CHINCHA                       ICA                           PERU                                    110201CRTCARRETERA PANAMERICANA                            KM 202                                   NA NO APLICA                          CHINCHA ALTA                  CHINCHA                       ICA                           PERU                                    110201          0000          0000          0000          0000          0000L21880196   1291614002-07-201800110215125001077962111733    0215         S11 3D 180703111733  N0011021512500107796211807030
41408981****1762    JUAN ANDRES CAMARENA ALVAREZ                         CALS N                                               MZ D    LT 7    SOCABAYA                 COVLAS MAGNOLIAS                      SOCABAYA                      AREQUIPA                      AREQUIPA                      PERU                                    040122CALS N                                               MZ D    LT 7    SOCABAYA                 COVLAS MAGNOLIAS                      SOCABAYA                      AREQUIPA                      AREQUIPA                      PERU                                    0401220019459209004500197648940049001992011200800540437715000000000000000000L08664578   2114817002-07-201800110220195001625274111859    0220         S11 3T 180703111859  N0011022019500162527411807030
41408981****1770    MARILU NORITA VERA DURAND                            CALS N                                               MZ D    LT 7    SOCABAYA                 COVLAS MAGNOLIAS                      SOCABAYA                      AREQUIPA                      AREQUIPA                      PERU                                    040122CALS N                                               MZ D    LT 7                             COVLAS MAGNOLIAS                      SOCABAYA                      AREQUIPA                      AREQUIPA                      PERU                                    0401220019764936000100195808730038          00000540437715000005495808730038L29384783   2183446002-07-201800110220195001625274111860    0220         S11 3D 180703111860  N0011022019500162527411807030
41408981****7802    LIZZY JACKELINE CARPIO HOLGADO                       CALCESAR VALLEJO                                     207     402                              URBLOS ANGELES                        YANAHUARA                     AREQUIPA                      AREQUIPA                      PERU                                    040126CALS N                                               MZ D    LT 15                            URBLOS ANGELES DE CAYMA               CAYMA                         AREQUIPA                      AREQUIPA                      PERU                                    040103054235689 000000198562370041          00000540270491000005402009240000L40323323   2078678702-07-201800110223535001026156111820    0223         S11 3T 180703111820  N0011022353500102615611807030
41408981****7810    LENIE ALBERTO CARPIO CHACON                          CALCESAR VALLEJO                                     207     402                              URBLOS ANGELES                        YANAHUARA                     AREQUIPA                      AREQUIPA                      PERU                                    040126CALPERAL                                             103                                      NA NO APLICA                          AREQUIPA                      AREQUIPA                      AREQUIPA                      PERU                                    04010100198412210014          0000          00000549841221001400000000000000L29637716   2094929502-07-201800110223535001026156111821    0223         S11 3D 180703111821  N0011022353500102615611807030
41408981****8690    CLAUDIA TRINIDAD DELGADO FERNANDEZ BACA              CALAHUACPINTA                                        605                                      NA NO APLICA                          CUSCO                         CUSCO                         CUSCO                         PERU                                    080101CALINTIKAWARINA                                      620                                      NA NO APLICA                          CUSCO                         CUSCO                         CUSCO                         PERU                                    08010100195482700020          0000          00000849802016005400000000000000L42764405   2176496302-07-201800110229235001326683111786    0229         S11 3T 180703111786  N180703111786               1
41408981****3640    LUIS FERNANDO HERRERA OPORTO                         JR.PIURA                                             200     DTO 302                          NA NO APLICA                          JULIACA                       SAN ROMAN                     PUNO                          PERU                                    211101JR.PIURA                                             S N                                      NA NO APLICA                          PUNO                          PUNO                          PUNO                          PERU                                    2101010019896514004500195172560023001958974100870549589741008700000000000000L29715323   2185960702-07-201800110229285001323234111734    0229         S11 3T 180703111734  N0011022928500132323411807030
41408981****3657    DINA SORAYA GOMEZ VALENCIA                           JR.PIURA                                             200     DTO 302                          NA NO APLICA                          JULIACA                       SAN ROMAN                     PUNO                          PERU                                    211101JR.PIURA                                             200     DPTO 302                         NA NO APLICA                          JULIACA                       SAN ROMAN                     PUNO                          PERU                                    21110100198736800028          0000          00000519466928008100000000000000L29349540   2372420302-07-201800110229285001323234111735    0229         S11 3D 180703111735  N0011022928500132323411807030
41408981****5064    ROLANDO AZEN CHAVEZ SUING                            CALREAL                                              398                                      NA NO APLICA                          PUEBLO NUEVO                  CHEPEN                        LA LIBERTAD                   PERU                                    130403CALS N                                               MZ E    LT 3                             URBGALENO                             TRUJILLO                      TRUJILLO                      LA LIBERTAD                   PERU                                    130101044562921 000000194339950088          00000440562921000000000000000000L19242863   2052282402-07-201800110247495001122008111780    0247         S11 3T 180703111780  N0011024749500112200811807030
41408981****6397    DORA ELIZABETH GOICOCHEA RAZURI                      CALREAL                                              398                                      NA NO APLICA                          PUEBLO NUEVO                  CHEPEN                        LA LIBERTAD                   PERU                                    130403CALS N                                               MZ B    LT 8                             AHHPALMA BELLA                        CHEPEN                        CHEPEN                        LA LIBERTAD                   PERU                                    13040100194339950087          0000          000000194339950087          0000L19336040   2156650402-07-201800110247495001122008111833    0247         S11 3D 180703111833  N0011024749500112200811807030
41408981****1675    MANUEL SACRAMENTO PURIZACA BENITES                   AV.MARISCAL CACERES                                  249     BLK F404ANTES DE LLEGAR AL OVALO NA NO APLICA                          PIURA                         PIURA                         PIURA                         PERU                                    200101AV.MARISCAL CACERES                                  249     BLK F404ANTES DE LLEGAR AL OVALO NA NO APLICA                          PIURA                         PIURA                         PIURA                         PERU                                    2001010019699918008900196996590091          00000739699918008907396996590091L02610745   2009776602-07-201800110267245001246172111810    0267         S11 3T 180703111810  N180703111810               1
41408981****4203    ANGEL DANIEL VERA OTEO                               CALLOS TULIPANES                                     S1      LT 26   3ER PISO                 URBMIRAFLORES                         CASTILLA                      PIURA                         PIURA                         PERU                                    200104CALMONTERREY                                         MZ E    LOTE 10 703                      NA NO APLICA                     L0033STGO.DE SURCO                 LIMA                          LIMA                          PERU                                    150140056328289 000000195674950067          00000000000000000000000000000000L09995207   2146376002-07-201800110267245001964997111811    0267         S11 3T 180703111811  N180703111811               1
41408981****7327    MARIA SOCORRO RUIZ PASTOR                            CALS N                                               EDIF 13 DPTO 204                         ZNARESIDENCIAL A B LEGUIA             CHICLAYO                      CHICLAYO                      LAMBAYEQUE                    PERU                                    140101NA NO APLICA                                         EDIF 13 DPTO 204                         URBQUINONES                           CHICLAYO                      CHICLAYO                      LAMBAYEQUE                    PERU                                    1401010019457801001600198189570076          00000749457801001607498189570076L16426844   0810757202-07-201800110288835001000062111849    0288         S11 3T 180703111849  N180703111849               1
41408981****6652    JUAN ALEJANDRO VASQUEZ BRIONES                       JR.LEONCIO PRADO                                     1371                                     NA NO APLICA                          TARAPOTO                      SAN MARTIN                    SAN MARTIN                    PERU                                    220901CALJUAN DE ARONA                                     151             PISO 5                   NA NO APLICA                     L0027SAN ISIDRO                    LIMA                          LIMA                          PERU                                    15013100194286150038          0000          00000429428615003800000000000000L45304842   2338461402-07-201800110310015001624056111812    0310         S11 3T 180703111812  N180703111812               1
41408981****2188    OSCAR MARTIN TORRES DEL AGUILA                       JR.BOLOGNESI                                         1610                                     SECPARTIDO ALTO                       TARAPOTO                      SAN MARTIN                    SAN MARTIN                    PERU                                    220901JR.BOLOGNESI                                         1610            *302654                  NA NO APLICA                          TARAPOTO                      SAN MARTIN                    SAN MARTIN                    PERU                                    22090100194245880075042532391 0000          0000042527209 000000194245880075L10224039   2077590102-07-201800110310025001134156111756    0310         S11 3T 180703111756  N180703111756               1
41408981****8770    JAVIER FEDERICO PALOMINO DAVILA                      CALS N                                               MZ J    LT 4                             URBBALTAZAR MARTINEZ DE               MORALES                       SAN MARTIN                    SAN MARTIN                    PERU                                    220910JR.ANGEL DELGADO                                     503                                      NA NO APLICA                          TARAPOTO                      SAN MARTIN                    SAN MARTIN                    PERU                                    2209010019968790009900195413260035          00000429968790009900000000000000L01157253   1095977202-07-201800110310055001623106111769    0310         S11 3T 180703111769  N180703111769               1
41408981****2653    JIMMY AGRIPINO SARMIENTO TOVAR                       CALerick fromm                                       174     3 piso  ALTURA DE CUADRA 4 DE GUAURBsanta maria de villa          L0009CHORRILLOS                    LIMA                          LIMA                          PERU                                    150108CALHERMANOS CATARI                                   175     INT 202                          URBMARANGA                       L0032SAN MIGUEL                    LIMA                          LIMA                          PERU                                    1501360012519607000000199245520045001578080800000015780808000000000000000000L40558034   2328165402-07-201800110317585000397933111795    0317         S11 3T 180703111795  N0011031758500039793311807030
41408981****2661    LISBETH MILENA PEREZ AMADO                           CALerick fromm                                       174     3 piso  ALTURA DE CUADRA 4 DE GUAURBsanta maria de villa          L0009CHORRILLOS                    LIMA                          LIMA                          PERU                                    150108JR.CAHUIDE                                           MZ D    LT 17   1ERA ETAPA               URBJOSE OLAYA                    L0009CHORRILLOS                    LIMA                          LIMA                          PERU                                    15010800198169190009          0000          000000198169190009          0000L42082707   2515361602-07-201800110317585000397933111796    0317         S11 3D 180703111796  N0011031758500039793311807030
41408981****4507    RAUL JORGE AGUILAR TAZA                              JR.LA CANTUTA 0                                      253             N                        URBZARATE                        L0036S.J. DE LURIGANCHO            LIMA                          LIMA                          PERU                                    150132JR.LOS CHASQUIS                                      249             ALT CDRA 02 AV CHIMU     URBZARATE                        L0036S.J. DE LURIGANCHO            LIMA                          LIMA                          PERU                                    1501320013420132000000196376350073          00000017191608000000000000000000L10347919   2212925602-07-201800110322525000237216111773    0322         S11 3T 180703111773  N180703111773               1
41408981****2294    MARTIN JOSE LUIS BEGAZO CERPA                        CALS N                                               MZ C    LT 12   ALT CDRA 14 AV LOS FRESNOURBGIRASOLES DE LA MOLINA        L0012LA MOLINA                     LIMA                          LIMA                          PERU                                    150114AV.SAN LUIS                                          916                                      URBLAS MORAS                     L0030SAN LUIS                      LIMA                          LIMA                          PERU                                    1501340013653113000000132373840000001996088900480013236168000000199608890048L10500878   2142653602-07-201800110335795001399407111837    0335         S11 3T 180703111837  N180703111837               1
41408981****7009    ANA LUZ MONTALVO CHAVEZ                              CALLA HABANA                                         121     INT 704 ,                        NA NO APLICA                     L0027SAN ISIDRO                    LIMA                          LIMA                          PERU                                    150131AV.JORGE BASADRE                                     120                                      NA NO APLICA                     L0011JESUS MARIA                   LIMA                          LIMA                          PERU                                    1501130014404478000000199577670032001265600018610012656000000000000000000000L23959951   1266243202-07-201800110353025001248563111804    0320         S11 3T 180703111804  N0011035302500124856311807030
41408981****7017    PEDRO MARCHENA REATEGUI                              CALLA HABANA                                         121     INT 704 ,                        NA NO APLICA                     L0027SAN ISIDRO                    LIMA                          LIMA                          PERU                                    150131AV.JORGE BASADRE                                     255     DPTO 301                         NA NO APLICA                     L0027SAN ISIDRO                    LIMA                          LIMA                          PERU                                    1501310014404478000000199001200033          00000014413353000000131900002231L08209584   2008432802-07-201800110353025001248563111805    0320         S11 3D 180703111805  N0011035302500124856311807030
41408981****5374    CARLOS ENRIQUE MOLINA CARPIO                         CALEL VELERO S N MZ J                                LT7                                      URBLAS LAGUNAS DE LA MOLINA      L0012LA MOLINA                     LIMA                          LIMA                          PERU                                    150114CALEL VELERO S N MZ J                                LT7                                      URBLAS LAGUNAS DE LA MOLINA      L0012LA MOLINA                     LIMA                          LIMA                          PERU                                    1501140013658047000000199686600005001352079700000013658047000000199686600005L29471013   2063280802-07-201800110353055001252676111789    0091         S11 3T 180703111789  N180703111789               1
41408981****2256    ROALD ALEXIS LUJAN AMAO                              AV.TOMAS VALLE                                       1530    DPTO 201BLOCK 4                  ZNAICA                           L0039LOS OLIVOS                    LIMA                          LIMA                          PERU                                    150117AV.TOMAS VALLE                                       1530    DPTO 201BLOCK 4                  NA NO APLICA                     L0039LOS OLIVOS                    LIMA                          LIMA                          PERU                                    1501170012968371000000199928870022          00000015334226000000199928870022L08532488   2134128002-07-201800110353065001234031111785    0320         S11 3T 180703111785  N180703111785               1
41408981****7154    MELISSA MORETTI NOBLECILLA                           CALMARCONA                                           369     302     ALT 4 DE PEDRO VENTU     AGRHIGUERETA                     L0033SANTIAGO DE SURCO             LIMA                          LIMA                          PERU                                    150140JR.AUGUSTO WIESSE                                    171                                      NA NO APLICA                     L0027SAN ISIDRO                    LIMA                          LIMA                          PERU                                    1501310014945833000000193402060090          00000019901837007700000000000000L41309413   2087536202-07-201800110359715001190355111824    0359         S11 3T 180703111824  N180703111824               1
41408981****2732    WALTER REYNALDO ALARCON GLASINOVICH                  CALSAN JOAQUIN                                       135             CALLE 1 NRO. 135         URBRICARDO PALMA                 L0033SANTIAGO DE SURCO             LIMA                          LIMA                          PERU                                    150140AV.AREQUIPA                                          1135                                     NA NO APLICA                     L0001CERCADO DE LIMA               LIMA                          LIMA                          PERU                                    1501010012608743000000199564240034          00000012101327000000000000000000L07554820   1310004702-07-201800110367005001234208111771    0367         S11 3T 180703111771  N180703111771               1
41408981****1310    IVAN CHRISTIAN CANALA ECHEVARRIA ARIAS               CALLADERAS DE LAS CASUARINAS                         128     FTO 404 ALT CDRA 8 DE JR TOMASAL NA NO APLICA                     L0033STGO.DE SURCO                 LIMA                          LIMA                          PERU                                    150140CRTPIMENTEL                                          980                                      NA NO APLICA                     L0027SAN ISIDRO                    LIMA                          LIMA                          PERU                                    15013100196546400064          0000          00000016164242000000000000000000L07222901   0246535302-07-201800110408205004443020111745    0285         S11 3T 180703111745  N180703111745               1
41408981****1280    LILIANA ROJAS ALVIAR                                 JR.GARCIA VILLON                                     674     DTO 404 TORRE B CONDOMINIO PARQUENA NO APLICA                     L0001CERCADO DE LIMA               LIMA                          LIMA                          PERU                                    150101JR.GARCIA VILLON                                     120                                      NA NO APLICA                     L0011JESUS MARIA                   LIMA                          LIMA                          PERU                                    1501130019807308002600199362040033001265490130340000000000000000000000000000L40721938   2134585102-07-201800110408215004359879111755    0320         S11 3T 180703111755  N180703111755               1
41408981****1992    ALFREDO ROY BARREDA LATHAM                           CALMARISCAL RAMON CASTILLA                           351     301     Entre Av. Roca y BoloNa yURBLA AURORA                     L0018MIRAFLORES                    LIMA                          LIMA                          PERU                                    150122AV.SAN PEDRO                                         220             OPP FILM SA              NA NO APLICA                     L0016LURIN                         LIMA                          LIMA                          PERU                                    1501190012424700000000199356350033001715700000000017157000000000000000000000L07825503   2086595202-07-201800110408215004369246111856    0109         S11 3T 180703111856  N180703111856               1
41408981****6837    CAROLINA LUZ GUEVARA JIMENEZ                         CALPASEO DE AGUAS.                                   194             ALT CDR17 AV LOS FRE     URBLAS LOMAS DE LA MOL.          L0012LA MOLINA                     LIMA                          LIMA                          PERU                                    150114AV.LA ENCALADA                                       CDRA 17                                  NA NO APLICA                     L0033STGO.DE SURCO                 LIMA                          LIMA                          PERU                                    1501400012399355000000199383410057          00000000000000000000000000000000L07589295   2197989802-07-201800110408215004482638111844    0188         S11 3T 180703111844  N180703111844               1
41408981****1927    JOSE AUGUSTO TOYAMA ASOSHINA                         CALCIPRIANO GUTIERREZ                                183             MZ F LT 16               URBLA MAR                        L0021PUEBLO LIBRE                  LIMA                          LIMA                          PERU                                    150121CALANDRES REYES                                      489     7                                NA NO APLICA                     L0027SAN ISIDRO                    LIMA                          LIMA                          PERU                                    1501310014606691000000199347270047001611787803020016117878000000000000000000L10760897   2097825402-07-201800110408225004462475111839    0486         S11 3T 180703111839  N180703111839               1
41408981****2511    EDGAR ALIAGA ALIAGA                                  AV.PASO DE LOS ANDES                                 1036    501                              AGR                              L0021PUEBLO LIBRE                  LIMA                          LIMA                          PERU                                    150121AV.PASO DE LOS ANDES                                 310                                      NA NO APLICA                     L0018MIRAFLORES                    LIMA                          LIMA                          PERU                                    1501220014251699000000196474230056001210520800000000000000000000000000000000L19873939   2067368702-07-201800110408255004353390111800    0142         S11 3T 180703111800  N180703111800               1
41408981****7451    NILA ESTHER CALDERON ALARCON                         CALLAS AZUCENAS PALMERAS EL GOLF                     210     DPTO 201REF A 1 CDRA DEL GOLF Y CNA NO APLICA                          VICTOR LARCO HERRERA          TRUJILLO                      LA LIBERTAD                   PERU                                    130111JR.PEDRO MUNIZ                                       545                                      URBSANNICOLAS                         TRUJILLO                      TRUJILLO                      LA LIBERTAD                   PERU                                    13010100196370320093044287236 0000          00000000000000000000000000000000L18089586   1164684002-07-201800110408255004409981111825    0918         S11 3T 180703111825  N180703111825               1
41408981****5467    FRANKLIN FLORES DOMINGUEZ                            CALFLORA TRISTAN                                     565     801                              URBORRANTIA DEL MAR              L0027SAN ISIDRO                    LIMA                          LIMA                          PERU                                    150131AV.CENTRAL                                           717                                      NA NO APLICA                     L0027SAN ISIDRO                    LIMA                          LIMA                          PERU                                    1501310012642623000000198718760007          00000000000000000000000000000000L10302897   2111815902-07-201800110408265004339959111776    0123         S11 3T 180703111776  N180703111776               1
41408981****1777    ROBERTO MARIO CARDENAS BAZAN                         AV.S N                                               TORRE2  DPTO206                          URBCONDOMINIO LAS PALEMRAS DEL CH     PIURA                         PIURA                         PIURA                         PERU                                    200802PSJTORRE TAGLE                                       178                                      URBSAN ANDRES                         TRUJILLO                      TRUJILLO                      LA LIBERTAD                   PERU                                    1301010019901732001000195739630048001947883100830000000000000000000000000000L18168668   2217909302-07-201800110408265004341325111817    0249         S11 3T 180703111817  N0011040826500434132511807030
41408981****9125    MILENA EDIT MAURIOLA CABRERA                         AV.S N                                               TORRE2  DPTO206                          URBCONDOMINIO LAS PALEMRAS DEL CH     PIURA                         PIURA                         PIURA                         PERU                                    200802JR.MARIANO BEJAR  URB LAS QUINTANAS                  528                                      URBEL RECREO                          TRUJILLO                      TRUJILLO                      LA LIBERTAD                   PERU                                    1301010019573963004200196662420004          0000044600172 000000196662420004L42990696   2267567502-07-201800110408265004341325111779    0249         S11 3D 180703111779  N0011040826500434132511807030
41408981****2655    WILFREDO AMADOR CARPIO CALDERON                      AV.JAVIER PRADO OESTE                                1241    INT 701 ESQ CON LOS ROBLES MZB5  NA NO APLICA                     L0027SAN ISIDRO                    LIMA                          LIMA                          PERU                                    150131CALLOS NOGALES                                       227     703                              NA NO APLICA                     L0027SAN ISIDRO                    LIMA                          LIMA                          PERU                                    1501310014221968000000199855210080001211550000000014221968000000199855210080L21403381   1330996502-07-201800110408265004419588111840    0123         S11 3T 180703111840  N180703111840               1
41408981****3083    ROCICELA ALZAMORA REATEGUI                           CALLAS HEBEAS                                        1285                                     URBLOS JARDINES                  L0036SAN JUAN DE LURIGANCHO        LIMA                          LIMA                          PERU                                    150132AV.JUAN DE ARONA                                     786                                      NA NO APLICA                     L0027SAN ISIDRO                    LIMA                          LIMA                          PERU                                    1501310014590369000000199960000001001215740073500000000000000000000000000000L08173748   2120129402-07-201800110408275004348109111801    0128         S11 3T 180703111801  N180703111801               1
41408981****3086    ROBERT ROMERO PALOMINO                               AV.BRASIL                                            861     DPT1005A                         NA NO APLICA                     L0011JESUS MARIA                   LIMA                          LIMA                          PERU                                    150113JR.AGUSTIN DE JAUREGUI                               3986                                     NA NO APLICA                     L0003ATE                           LIMA                          LIMA                          PERU                                    1501030013309026000000199646740008001311300000000000000000000000000000000000L40989395   2232028202-07-201800110408275004425758111845    0315         S11 3T 180703111845  N180703111845               1
41408981****4437    ROCIO KARINA MATOS VASCONES                          AV.JORGE CHAVEZ                                      375     204                              AGR.                             L0018MIRAFLORES                    LIMA                          LIMA                          PERU                                    150122JR.JORGE CHAVEZ                                      375     DPTO 204                         NA NO APLICA                     L0018MIRAFLORES                    LIMA                          LIMA                          PERU                                    15012200198121720005          0000          000000198121720005          0000L10134775   2189823402-07-201800110408295004353374111777    0315         S11 3D 180703111777  N180703111777               1
41408981****3911    WILDER JORGE CAMPO LASTRA                            JR.MELITON CARBAJAL                                  519                                      URBINGENIERIA                    L0031SAN M. DE PORRES              LIMA                          LIMA                          PERU                                    150135AV.NICOLAS AYLLON                                    3986                                     NA NO APLICA                     L0003ATE                           LIMA                          LIMA                          PERU                                    1501030014812882000000199712380091          00000019971238009100000000000000L09916916   2204053702-07-201800110408295004359984111743    0105         S11 3T 180703111743  N0011040829500435998411807030
41408981****3929    ERNESTO ERICK CAMPO LASTRA                           JR.MELITON CARBAJAL                                  519                                      URBINGENIERIA                    L0031SAN M. DE PORRES              LIMA                          LIMA                          PERU                                    150135AV.MIRO QUESADA                                      425                                      NA NO APLICA                     L0017MAGDALENA                     LIMA                          LIMA                          PERU                                    15012000198765760082          0000          000000198765760082          0000L41847212   2375755702-07-201800110408295004359984111744    0105         S11 3D 180703111744  N0011040829500435998411807030
41408981****0703    CELIA CONSUELO GUEVARA LLAVE VDA DE COELLO           CALGUADALAJARA                                       175     401                              URBLOS JAZMINES                  L0033STGO.DE SURCO                 LIMA                          LIMA                          PERU                                    150140CALORTIZ DE ZEVALLOS                                 111             MINISTERIO DE EDUCAC     NA NO APLICA                     L0041SAN BORJA                     LIMA                          LIMA                          PERU                                    1501300012728641000000198747480066001999078100730019627626003200000000000000L07771047   2494899702-07-201800110508935000087037111772    0508         S11 3T 180703111772  N180703111772               1
41408981****7113    ANGEL DAVID MACHADO TORRES                           AV.MONTERRICO CHICO                                  M161    L104                             URBJUAN PABLO DE MONTERRICO      L0033SANTIAGO DE SURCO             LIMA                          LIMA                          PERU                                    150140AV.MONTERRICO CHICO                                  161     104                              URBJUAN PABLO DE MONTERRICO      L0033STGO.DE SURCO                 LIMA                          LIMA                          PERU                                    1501400012751675000000195133230025          00000012751675000000195133230025L10374642   2046640702-07-201800110518835000042100111766    0194         S11 3T 180703111766  N0011051883500004210011807030
41408981****7121    KATHERINE COMBE FRITZ                                AV.MONTERRICO CHICO                                  M161    L104                             URBJUAN PABLO DE MONTERRICO      L0033SANTIAGO DE SURCO             LIMA                          LIMA                          PERU                                    150140AV.MONTERRICO CHICO                                  161     104                              NA NO APLICA                     L0033STGO.DE SURCO                 LIMA                          LIMA                          PERU                                    15014000127516750000          0000          00000012751675000000000000000000L10803556   2080356602-07-201800110518835000042100111767    0194         S11 3D 180703111767  N0011051883500004210011807030
41408981****6364    GISSELLA SHIRLEY ALAVEDRA LUCK                       CALVENTINUEVE                                        267     104     DPTO 104                 URBMARISCAL CASTILLA             L0041SAN BORJA                     LIMA                          LIMA                          PERU                                    150130AV.CAMINOS DEL INCA                                  2150                                     NA NO APLICA                     L0033STGO.DE SURCO                 LIMA                          LIMA                          PERU                                    1501400014355798000000195869420085001274378600000012266711000000000000000000L25486147   2088690602-07-201800110732505000031382111855    0732         S11 3T 180703111855  N180703111855               1
41408981****9366    SILVIA VANESA GARCIA CESPEDES                        CALCENIZA                                            326             A UNA CUADRA DEL COLEGIO NA NO APLICA                          CUSCO                         CUSCO                         CUSCO                         PERU                                    080101CALCENIZA                                            273     2DO PISO                         NA NO APLICA                          CUSCO                         CUSCO                         CUSCO                         PERU                                    08010100199479030028          0000          00000849583328005200000000000000L45436762   2494009402-07-201800110781225003419850111768    0200         S11 3T 180703111768  N180703111768               1
41408981****8780    CARLOS EDER ALVARO ESPINO                            AV.GONZALES PRADA                                    830                                      URBVENUS                         L0039LOS OLIVOS                    LIMA                          LIMA                          PERU                                    150117CAL-                                                 MZ -    LT      -                        NA NO APLICA                     L0027SAN ISIDRO                    LIMA                          LIMA                          PERU                                    15013101 481343000000019977266006801 523997000000012172130000000000000000000L42534451   2362726202-07-201800110781225003428736111823    0319         S11 3T 180703111823  N180703111823               1
41408981****5765    HUGO GILBERT CHAUCA AGUIRRE                          CALPANAMA                                            582                                      NA NO APLICA                          PUNCHANA                      MAYNAS                        LORETO                        PERU                                    160108CALPANAMA                                            S N                                      NA NO APLICA                          PUNCHANA                      MAYNAS                        LORETO                        PERU                                    16010800196577140071          0000          00000650252733000000000000000000L05400893   2510056502-07-201800110781225003440663111794    0050         S11 3T 180703111794  N180703111794               1
41408981****7371    JESSICA PAMELA GUANILO FONG PHUM                     CALLAS POMAROSAS                                     495                                      URBEL GOLF                            VICTOR LARCO HERRERA          TRUJILLO                      LA LIBERTAD                   PERU                                    130111CALFRANCISCO PIZARRO                                 547                                      NA NO APLICA                          TRUJILLO                      TRUJILLO                      LA LIBERTAD                   PERU                                    13010100194832120020          0000          00000440299424000000000000000000L40197932   2123866002-07-201800110781235003442690111829    0918         S11 3T 180703111829  N180703111829               1
41408981****6105    JACQUELINE LA TORRE MENDOZA                          JR.J.J. PASOS                                        184     DPTO500                          NA NO APLICA                     L0021PUEBLO LIBRE                  LIMA                          LIMA                          PERU                                    150121JR.JJ PASOS                                          120                                      NA NO APLICA                     L0011JESUS MARIA                   LIMA                          LIMA                          PERU                                    15011300195963630027          0000          00000012656000000000000000000000L40995272   2480823602-07-201800110781245003419095111836    0235         S11 3T 180703111836  N180703111836               1
41408981****0892    CINTHYA JOHANA REATEGUI IBARGUEN                     AV.AGUSTIN DE LA ROSA TORO                           968     301     Altura de la cuadra 35 deURBJAVIER PRADO 4TA ETAPA        L0030SAN LUIS                      LIMA                          LIMA                          PERU                                    150134CALCENTENARIO                                        156                                      ZNASANTA PATRICIA                L0012LA MOLINA                     LIMA                          LIMA                          PERU                                    1501140013461316000000194934350099          00000013132000332900000000000000L46216965   2510359502-07-201800110781265003442976111857    0341         S11 3T 180703111857  N0011078126500344297611807030
41408981****0918    SOLEDAD AMANDA IBARGUEN POMARINO                     AV.AGUSTIN DE LA ROSA TORO                           968     301     Altura de la cuadra 35 deURBJAVIER PRADO 4TA ETAPA        L0030SAN LUIS                      LIMA                          LIMA                          PERU                                    150134AV.ROSA TORO                                         970                                      NA NO APLICA                     L0030SAN LUIS                      LIMA                          LIMA                          PERU                                    1501340013461316000000199691390095          00000000000000000000000000000000L08416694   2267950702-07-201800110781265003442976111858    0341         S11 3D 180703111858  N0011078126500344297611807030
41408981****3317    RONALD JIMMY MALAGA ZUNIGA                           CALS N                                               MZ G    LT 3    MUEBLERIA RONY           ZNAPARQUE INDUSTRIAL                  TACNA                         TACNA                         TACNA                         PERU                                    230101AV.CUSCO                                             314                                      NA NO APLICA                          TACNA                         TACNA                         TACNA                         PERU                                    23010100195286240055          0000          000000195286240055          0000L46447023   2573071502-07-201800110781265003443018111808    0427         S11 3D 180703111808  N180703111808               1
41408981****3325    MELISSA ARACELY MALAGA ZUNIGA                        CALS N                                               MZ G    LT 3    MUEBLERIA RONY           ZNAPARQUE INDUSTRIAL                  TACNA                         TACNA                         TACNA                         PERU                                    230101AV.CUSCO                                             314                                      NA NO APLICA                          TACNA                         TACNA                         TACNA                         PERU                                    23010100195286240055          0000          00000019528624005500000000000000L44770532   2573071102-07-201800110781265003443018111809    0427         S11 3D 180703111809  N180703111809               1
41408981****1110    FAUSTA MAXIMINA ALVARADO CORTEZ                      AV.LA ALBORADA                                       1458    1460                             URBLAS BRISAS                    L0001CERCADO DE LIMA               LIMA                          LIMA                          PERU                                    150101AV.LA ALBORADA                                       1462                                     NA NO APLICA                     L0001CERCADO DE LIMA               LIMA                          LIMA                          PERU                                    1501010013348078000000198233390039          00000013348078000000000000000000L42169610   2178272902-07-201800110785325001555104111775    0118         S11 3T 180703111775  N180703111775               1
41408981****8429    RENZO MIGUEL FERRER RUIZ                             CALALEX BARCKLAY                                     114     202     ALTURA DE LA CDRA 14 DE LURBVISTA ALEGRE                  L0033SANTIAGO DE SURCO             LIMA                          LIMA                          PERU                                    150140AV.LOS CASTILLOS                                     MZ 03   LT 05                            ZNACDRA 03                       L0003ATE                           LIMA                          LIMA                          PERU                                    1501030016529323000000194970530004          00000019497053000400000000000000L41585109   2313222202-07-201800110785335001550889111806    0183         S11 3T 180703111806  N180703111806               1
41408981****6064    ROBERT EDER ACUNA HERRERA                            JR.ENRIQUE OPPENHEINER                               696                                      ZNAB                             L0029SAN JUAN DE MIRAFLORES        LIMA                          LIMA                          PERU                                    150133JR.ENRIQUE OPPENHEIMER                               696                                      URBSAN JUAN                      L0029SAN JUAN DE MIRAFLORES        LIMA                          LIMA                          PERU                                    1501330015930789000000196474870078          00000019988338000000000000000000L41493778   2202554102-07-201800110785345001545133111787    0367         S11 3T 180703111787  N180703111787               1
41408981****7565    JUAN MIGUEL NINO SAUCEDO                             CALPUNA 187                                          187                                      URBMARANGA                       L0032SAN MIGUEL                    LIMA                          LIMA                          PERU                                    150136CALPUNA                                              187     OF 2                             URBMARANGA                       L0032SAN MIGUEL                    LIMA                          LIMA                          PERU                                    1501360016280457000000199832380028          00000016280457000000000000000000L40621964   2377748802-07-201800110785345001546830111818    0486         S11 3T 180703111818  N180703111818               1
41408981****7116    MARIA DEL PILAR JULI PALOMINO CHAVEZ                 AV.BOLIVAR                                           2150    104     EDIF 13                  NA NO APLICA                     L0021PUEBLO LIBRE                  LIMA                          LIMA                          PERU                                    150121AV.BOLIVAR                                           2886                                     NA NO APLICA                     L0041SAN BORJA                     LIMA                          LIMA                          PERU                                    1501300013407879000000198347010077          00000019934877001400000000000000L43649770   2194414302-07-201800110785345001554132111757    0190         S11 3T 180703111757  N180703111757               1
41408981****3047    JULIO CESAR CARPIO POMA                              CALSIN NUMERO                                        MZ Z    LT 14   A                        COVCESAR VALLEJO                 L0031SAN MARTIN DE PORRES          LIMA                          LIMA                          PERU                                    150135CALSIN NOMBRE                                        MZZ     LT14                             COVCESAR VALLEJO                 L0031SAN M. DE PORRES              LIMA                          LIMA                          PERU                                    1501350015674150000000194181410070          00000019988799003800000000000000L19990769   2508395202-07-201800110785355001556461111842    0176         S11 3T 180703111842  N0011078535500155646111807030
41408981****3054    JULIA JUDITH CHOCA SALVATIERRA                       CALSIN NUMERO                                        MZ Z    LT 14   A                        COVCESAR VALLEJO                 L0031SAN MARTIN DE PORRES          LIMA                          LIMA                          PERU                                    150135CALS N                                               MZ Z    LT 14                            COVCESAR VALLEJO                 L0031SAN M. DE PORRES              LIMA                          LIMA                          PERU                                    15013500198504520074          0000          00000019850452007400000000000000L10628130   2533897402-07-201800110785355001556461111843    0176         S11 3D 180703111843  N0011078535500155646111807030
41408981****8503    HECTOR HENRY ROSADO CASTRO                           JR.INCA YUPANQUI 359                                 367     MZH LT23PARADERO NARANJAL        URBTAHUANTINSUYO                 L0028INDEPENDENCIA                 LIMA                          LIMA                          PERU                                    150112CALINCA YUPANQUI                                     367                                      URBTAHUANTINSUYO                 L0028INDEPENDENCIA                 LIMA                          LIMA                          PERU                                    1501120019913512007300167303000000          00000015262617000000000000000000L09513032   2508446902-07-201800110785355001557050111746    0342         S11 3T 180703111746  N180703111746               1
41408981****4047    ADEL GEORGE ODE JAIME                                AV.ALAMEDA EL SERENO                                 161                                      ZNACASA 3                        L0009CHORRILLOS                    LIMA                          LIMA                          PERU                                    150108CALREPUBLICA DE COLOMBIA                             791                                      NA NO APLICA                     L0027SAN ISIDRO                    LIMA                          LIMA                          PERU                                    1501310012542766000000199352180072001966424300250011111111000000000000000000L10316948   2323275602-07-201800110785355001557069111807    0137         S11 3T 180703111807  N180703111807               1
41408981****5570    PEDRO JOSE AUGUSTO CANO AGUILAR                      CALSANTA ISABEL                                      573                                      URBCOLMENARES                    L0021PUEBLO LIBRE                  LIMA                          LIMA                          PERU                                    150121CALSTA ISABEL                                        4787            POR POLVOS ROSADOS       NA NO APLICA                     L0033STGO.DE SURCO                 LIMA                          LIMA                          PERU                                    1501400014614175000000199216080054          00000019921608005400000000000000L41730356   2313206002-07-201800110785375001544293111790    0357         S11 3T 180703111790  N180703111790               1
41408981****9648    LUISA BELEN TORRES LASTARRIA                         AV.AMANCAES                                          466     DTOG                             URBLA FLORIDA                    L0025RIMAC                         LIMA                          LIMA                          PERU                                    150128AV.SAN JOSE                                          349                                      URBSAN JOSE                      C0002BELLAVISTA                    CALLAO                        CALLAO                        PERU                                    0701020014828538000000198664860008          00000014641890000000000000000000L47461593   2506270402-07-201800110831505002377098111847    0177         S11 3T 180703111847  N180703111847               1
41408981****0353    GUILLERMO LORENZO QUESADA CHIARELLA                  JR.AUGUSTO BOLOGNESI                                 288             ENTRE LA CDRA 6 Y 7 AV SUNA NO APLICA                     L0017MAGDALENA                     LIMA                          LIMA                          PERU                                    150120JR.AUGUSTO BOLOGNESI                                 1203                                     NA NO APLICA                     L0001CERCADO DE LIMA               LIMA                          LIMA                          PERU                                    1501010019975243001900195851770077          000000199752430019          0000L41226730   2509808802-07-201800110831505002396092111819    0357         S11 3T 180703111819  N180703111819               1
41408981****3565    RENZO LUIS DEMARINI RAZZETO                          CALJOSE GONZALES                                     438                                      NA NO APLICA                     L0018MIRAFLORES                    LIMA                          LIMA                          PERU                                    150122AV.PASEO DE LA REPUBLICA                             3717                                     NA NO APLICA                     L0027SAN ISIDRO                    LIMA                          LIMA                          PERU                                    1501310012414389000000199753200087          00000013195555000000000000000000L43890054   2229953402-07-201800110831525002383055111731    0166         S11 3T 180703111731  N180703111731               1
41408981****6099    VICTOR HUGO AYVAR IPARRAGUIRRE                       CALCERRO BELLO                                       S N             MZ E LT 2                URBSAN IGNACIO DE LOYOLA         L0033SANTIAGO DE SURCO             LIMA                          LIMA                          PERU                                    150140CALALAMEDA DONA JULIA                                MZ J1   LT 5                             URBLOS HUERTOS DE VILLA          L0009CHORRILLOS                    LIMA                          LIMA                          PERU                                    1501080012750013000000194028110024001713092300000017130923000000000000000000L40962572   2087745502-07-201800110831525002399377111850    0261         S11 3T 180703111850  N180703111850               1
41408981****9887    JULIO ISRAEL CORDERO TICSE                           CALJOSE PENZA                                        MZ M    LT 6    LIMA                     URBHONOR Y LEALTAD               L0033SANTIAGO DE SURCO             LIMA                          LIMA                          PERU                                    150140CALCASTILLA                                          1652                                     NA NO APLICA                     L0033STGO.DE SURCO                 LIMA                          LIMA                          PERU                                    1501400016667455000000197270240085          00000013451275000000000000000000L43261299   2191317102-07-201800110831535002382121111822    0170         S11 3T 180703111822  N180703111822               1
41408981****6435    LUIS DONGO DE VILLENA                                AV.CAMINO REAL                                       985     2402    SIN REF                  NA NO APLICA                     L0027SAN ISIDRO                    LIMA                          LIMA                          PERU                                    150131CALCAMINO REAL                                       119     203                              NA NO APLICA                     L0027SAN ISIDRO                    LIMA                          LIMA                          PERU                                    1501310019878013008100122107550000          00000019878013008100000000000000L44657919   2502770102-07-201800110831545002384493111784    0366         S11 3T 180703111784  N180703111784               1
41408981****4314    DIANA MARIBEL BARRETO NAVARRO                        CALCAHUIDE                                           MZ M    LT 21                            URBALAN GARCIA                        LA ESPERANZA                  TRUJILLO                      LA LIBERTAD                   PERU                                    130105AV.LACO                                              423     OF 203  PISO 2                   ZNALA MERCED                          TRUJILLO                      TRUJILLO                      LA LIBERTAD                   PERU                                    1301010019702148000000196998370056          00000449699837005600000000000000L43341531   2510443302-07-201800110831545002400898111838    0250         S11 3T 180703111838  N180703111838               1
41408981****7861    JOSE RENATO ASTORGA GONZALES                         CALSIN NOMBRE                                        MZ A    LT 2    DEPARTAMENTO D           URBLOS DIAMANTES                      SACHACA                       AREQUIPA                      AREQUIPA                      PERU                                    040117PSJLIMA                                              105             MEDIA CUADRA ANTES DE PARZNAPAMPAS DE CAMARONES                SACHACA                       AREQUIPA                      AREQUIPA                      PERU                                    04011700197369350006          0000          00000540449697000005497369350006L43641287   2377595202-07-201800110831555002385406111739    0226         S11 3T 180703111739  N180703111739               1
41408981****3183    VERONICA DEL PILAR SOLIS DOCAMPO                     AV.GENERAL CORDOVA                                   810     DPTO 403MORA                     NA NO APLICA                     L0018MIRAFLORES                    LIMA                          LIMA                          PERU                                    150122AV.GENERAL CORDOVA                                   810     403                              NA NO APLICA                     L0018MIRAFLORES                    LIMA                          LIMA                          PERU                                    1501220012220641000000199167310052          00000012220641000000000000000000L44312405   2508783102-07-201800110831555002389517111846    0426         S11 3T 180703111846  N180703111846               1
41408981****6419    LAURA ROSARIO MANTILLA ALCANTARA                     CALGARCILAZO DE LA VEGA                              779                                      NA NO APLICA                     L0003ATE                           LIMA                          LIMA                          PERU                                    150103CALGARCILAZO DE LA VEGA                              KM 20                                    NA NO APLICA                     L0042V. EL SALVADOR                LIMA                          LIMA                          PERU                                    1501420019874852007200143794140000          00000017194100000000000000000000L42409273   2189627002-07-201800110831555002389819111826    0136         S11 3T 180703111826  N180703111826               1
41408981****2313    CINTYA TATIANA CAMPOS TORRES                         JR.JOSE PEZET Y MONEL                                2452            LINCE                    NA NO APLICA                     L0014LINCE                         LIMA                          LIMA                          PERU                                    150116CALLAMA UMBROSA                                      279                                      NA NO APLICA                     L0001CERCADO DE LIMA               LIMA                          LIMA                          PERU                                    15010100193915150075          0000          00000019866702007400000000000000L45158477   2442715602-07-201800110831595002380633111799    0933         S11 3D 180703111799  N180703111799               1
