41408982****5787    MAYRA  IRENE DIAZ BONILLA                            AV.MELGAREJO                                         654     101     RENTA AL BCP                                      URBSANTA PATRICIA                L0012LA MOLINA                     LIMA                          LIMA                          PERU                                    150114CALLA PLATA                                          192                                                                    URBSAN EDUARDO                        CHICLAYO                      CHICLAYO                      LAMBAYEQUE                    PERU                                    14010100196625220007          0000          0000          0000          0000L44613220   2478612003-08-202000110785325002965888100013    0262         S11 2T 200801100013  N200801100013               186600
41408982****6207    PABLO MARTIN CORNEJO DE VINATEA                      CALPALACIO VIEJO 115                                 OF 23B          CLAUSTROS DE LA CIA                               NA NO APLICA                          AREQUIPA                      AREQUIPA                      AREQUIPA                      PERU                                    040101AV.REPUBLICA DE PANAMA                               3055                                                                   URBEL PALOMAR                    L0027SAN ISIDRO                    LIMA                          LIMA                          PERU                                    15013100144121120000001959707900080014848470000000195994800083          0000L29483403   2006805403-08-202000110220135001765521100016    0220         S11 2T 200801100016  N200801100016               182100
41406882****5550    FREDDY SEGUNDO DE LA CRUZ QUISPE                     CALANCASH .                                          351             ALT DEL AL ESTADIO U     ION                      NA NO APLICA                          TRUJILLO                      TRUJILLO                      LA LIBERTAD                   PERU                                    130101CALPUERTO RICO. .                                    197             A 2 CUADRA DEL ICPNA                                   NA NO APLICA                          TRUJILLO                      TRUJILLO                      LA LIBERTAD                   PERU                                    130101044481890 000000194956730001          0000          0000          0000L41097596   2747112203-08-202000110408215006750370100002    0251         S13 2T 200801100002  N200801100002               186600
55365082****5625    FRANCO DAVID MELCHIOR X                              AV.LA MERCED                                         1015    B502    MIRAFLORES                                        NA NO APLICA                     L0033SANTIAGO DE SURCO             LIMA                          LIMA                          PERU                                    150140AV.LA MOLINA                                         SN                                                                     NA NO APLICA                     L0003ATE                           LIMA                          LIMA                          PERU                                    15010300197045850011          0000          0000          0000          0000E001289657  2626491903-08-202000110504805000746993100295    0142         SB  1D1200801100295  N200801100295               186100
55365082****5708    JOSE HIGINIO SAN MARTIN VALLE                        CALGODOFREDO GARCIA                                  175     SN      ULTIMA CDRA DE AV S                               NA NO APLICA                     L0017MAGDALENA                     LIMA                          LIMA                          PERU                                    150120AV.JAVIER PRADO OESTE                                1520                                                                   NA NO APLICA                     L0027SAN ISIDRO                    LIMA                          LIMA                          PERU                                    1501310019537216002800199408620074          0000          0000          0000L43151017   2391218103-08-202000110408245007243030100296    0182         SB  2T1200801100296  N200801100296               186100
55365082****8405    CARLA FIORELLA DAVILA NAPRAVNIK                      CALBARCELONAAA                                       108             A                                                 NA NO APLICA                     L0027SAN ISIDRO                    LIMA                          LIMA                          PERU                                    150131CALBARCELONA                                         108                                                                    NA NO APLICA                     L0027SAN ISIDRO                    LIMA                          LIMA                          PERU                                    15013100199687160008          0000          0000          0000          0000L71936724   2912045403-08-202000110189885001674383100309    0189         SB  1D1200801100309  N200801100309               1     
49191382****4400    MARIA CLAUDIA RODRIGUEZ ZAVALETA                     AV.PABLO CARRIQUIRRY                                 115                                                               URBEL PALOMAR                    L0027SAN ISIDRO                    LIMA                          LIMA                          PERU                                    150131AV.PABLO CARRIQUIRRI                                 115                                                                    URBEL PALOMAR                    L0027SAN ISIDRO                    LIMA                          LIMA                          PERU                                    1501310019892503005400137245470000          0000          0000          0000L43218836   2471790003-08-202000110377995001008121100272    0377         SH  1D2200801100272  N200801100272               186500
49190982****8035    ELISA COBOS BARRERA                                  CALANDRES RAZURI                                     37              CERCADO                                           NA NO APLICA                          PACASMAYO                     PACASMAYO                     LA LIBERTAD                   PERU                                    130704JR.ANDRES RAZURI                                     37      2                                                              NA NO APLICA                          PACASMAYO                     PACASMAYO                     LA LIBERTAD                   PERU                                    1307040019948589005800194288900021          0000          0000          0000L46381115   2558906403-08-202000110408235005609852100238    0291         SI  1D3200801100238  N200801100238               187100
51240982****5690    EVELYN JUANA YABAR CARRION                           PSJSANTA ISABEL                                      462             NTA ISABEL                                        URBSAN CARLOS                         HUANCAYO                      HUANCAYO                      JUNIN                         PERU                                    120101CALDEAN VALDIVIA                                     148     501     EX CALLE LOS ROSALES                                   NA NO APLICA                     L0027SAN ISIDRO                    LIMA                          LIMA                          PERU                                    15013100198699650006          0000          0000          0000          0000L46544004   2620855903-08-202000110408215007502826100275    0266         SQ  1D2200801100275  N200801100275               186600
41479182****5661    MARGOT ISOLINA CALDERON CARBAJAL                     CALENRIQUE LEON GARCIA                               573     202     ALTURA DE LA 38 DE BENAVIDES                      NA NO APLICA                     L0033SANTIAGO DE SURCO             LIMA                          LIMA                          PERU                                    150140CALENRIQUE LEON GARCIA                               573     202     ALTURA DE LA 38 DE BENAVIDES                           NA NO APLICA                     L0033SANTIAGO DE SURCO             LIMA                          LIMA                          PERU                                    150140001995484600740012102827000000127121360000          0000          0000L08148033   2059013603-08-202000110117955001728561100067    0486         SS  2T1200801100067  N200801100067               184100
41479182****5745    CARMEN CECILIA ALVARADO BRICENO                      CALJUAN BACH .                                       864             FRENTE A LA FABRICA                               URBPRIMAVERA                          TRUJILLO                      TRUJILLO                      LA LIBERTAD                   PERU                                    130101AV.AMERICA NORTE                                     2480            .                                                      URBPRIMAVERA                          TRUJILLO                      TRUJILLO                      LA LIBERTAD                   PERU                                    13010100194344490077          0000          0000          0000          0000L47801934   2780267103-08-202000110408235008082871100068    0900         SS  1D1200801100068  N200801100068               186600
41479182****6586    CLAUDIA PATRICIA MELGAREJO ALALUNA                   CALJOSE A LAVALLE                                    119     MZ J    LT 14                                             URBSAN JUAN BAUTISTA DE VILLA    L0009CHORRILLOS                    LIMA                          LIMA                          PERU                                    150108AV.MERINO REYNA                                      285                                                                    NA NO APLICA                     L0027SAN ISIDRO                    LIMA                          LIMA                          PERU                                    1501310019877458009700125408650000          0000          0000          0000L10632792   2324419703-08-202000110117905001677371100081    0849         SS  2T1200801100081  N200801100081               186600
41479182****6891    JOSE ANTONIO FALCONI HEREDIA                         CALRAVEL                                             168     DPTO301                                                   URBSAN BORJA SUR                 L0041SAN BORJA                     LIMA                          LIMA                          PERU                                    150130CALRAVEL                                             168     DPTO301                                                        URBSAN BORJA SUR                 L0041SAN BORJA                     LIMA                          LIMA                          PERU                                    150130001411595000000019537334005900122495910000          0000          0000L09867694   2086924303-08-202000110352205001066931100089    0486         SS  2T1200801100089  N200801100089               182100
41479182****8020    KASSANDRA VASQUEZ SITO                               JR.LAS TURQUESAS                                     550                                                               URBSANTA INES                         TRUJILLO                      TRUJILLO                      LA LIBERTAD                   PERU                                    130101CALLAS TURQUEZAS                                     550                                                                    URBSANTA INES                         TRUJILLO                      TRUJILLO                      LA LIBERTAD                   PERU                                    13010100194993070054          0000          0000          0000          0000L70657225   2631381003-08-202000110249025003567628100100    0249         SS  1D1200801100100  N200801100100               187100
41479182****8319    MARIA DEL PILAR RIVERA CAVERO                        CALPLAYA TOTORITAS .                                 SN              KM  80 DE PANAMERICA                              SECCASA VICTOR MARRUFO                MALA                          CA ETE                        LIMA                          PERU                                    150509CALPLAYA TOTORITAS .                                 SN              KM  80 DE PANAMERICA                                   SECCASA VICTOR MARRUFO                MALA                          CA ETE                        LIMA                          PERU                                    15050900199407290065          0000          0000          0000          0000L07267954   2019880803-08-202000110408215008397155100108    0117         SS  1T1200801100108  N200801100108               184100
41479182****8491    MIGUEL ALEXANDRE VASQUEZ SITO                        JR.LAS TURQUESAS                                     550                                                               URBSANTA INES                         TRUJILLO                      TRUJILLO                      LA LIBERTAD                   PERU                                    130101JR.LAS TURQUESAS                                     550                                                                    NA NO APLICA                          TRUJILLO                      TRUJILLO                      LA LIBERTAD                   PERU                                    13010100195781390085          0000          0000          0000          0000L70657226   2912045603-08-202000110249025003567628100111    0249         SS  1D1200801100111  N200801100111               1     
41408982****5787    MAYRA  IRENE DIAZ BONILLA                            AV.MELGAREJO                                         654     101     RENTA AL BCP                                      URBSANTA PATRICIA                L0012LA MOLINA                     LIMA                          LIMA                          PERU                                    150114CALLA PLATA                                          192                                                                    URBSAN EDUARDO                        CHICLAYO                      CHICLAYO                      LAMBAYEQUE                    PERU                                    14010100196625220007          0000          0000          0000          0000L44613220   2478612003-08-202000110785325002965888100013    0262         S11 2T 200801100013  N200801100013               186600
41408982****6207    PABLO MARTIN CORNEJO DE VINATEA                      CALPALACIO VIEJO 115                                 OF 23B          CLAUSTROS DE LA CIA                               NA NO APLICA                          AREQUIPA                      AREQUIPA                      AREQUIPA                      PERU                                    040101AV.REPUBLICA DE PANAMA                               3055                                                                   URBEL PALOMAR                    L0027SAN ISIDRO                    LIMA                          LIMA                          PERU                                    15013100144121120000001959707900080014848470000000195994800083          0000L29483403   2006805403-08-202000110220135001765521100016    0220         S11 2T 200801100016  N200801100016               182100
41406882****5550    FREDDY SEGUNDO DE LA CRUZ QUISPE                     CALANCASH .                                          351             ALT DEL AL ESTADIO U     ION                      NA NO APLICA                          TRUJILLO                      TRUJILLO                      LA LIBERTAD                   PERU                                    130101CALPUERTO RICO. .                                    197             A 2 CUADRA DEL ICPNA                                   NA NO APLICA                          TRUJILLO                      TRUJILLO                      LA LIBERTAD                   PERU                                    130101044481890 000000194956730001          0000          0000          0000L41097596   2747112203-08-202000110408215006750370100002    0251         S13 2T 200801100002  N200801100002               186600
55365082****5625    FRANCO DAVID MELCHIOR X                              AV.LA MERCED                                         1015    B502    MIRAFLORES                                        NA NO APLICA                     L0033SANTIAGO DE SURCO             LIMA                          LIMA                          PERU                                    150140AV.LA MOLINA                                         SN                                                                     NA NO APLICA                     L0003ATE                           LIMA                          LIMA                          PERU                                    15010300197045850011          0000          0000          0000          0000E001289657  2626491903-08-202000110504805000746993100295    0142         SB  1D1200801100295  N200801100295               186100
55365082****5708    JOSE HIGINIO SAN MARTIN VALLE                        CALGODOFREDO GARCIA                                  175     SN      ULTIMA CDRA DE AV S                               NA NO APLICA                     L0017MAGDALENA                     LIMA                          LIMA                          PERU                                    150120AV.JAVIER PRADO OESTE                                1520                                                                   NA NO APLICA                     L0027SAN ISIDRO                    LIMA                          LIMA                          PERU                                    1501310019537216002800199408620074          0000          0000          0000L43151017   2391218103-08-202000110408245007243030100296    0182         SB  2T1200801100296  N200801100296               186100
55365082****8405    CARLA FIORELLA DAVILA NAPRAVNIK                      CALBARCELONAAA                                       108             A                                                 NA NO APLICA                     L0027SAN ISIDRO                    LIMA                          LIMA                          PERU                                    150131CALBARCELONA                                         108                                                                    NA NO APLICA                     L0027SAN ISIDRO                    LIMA                          LIMA                          PERU                                    15013100199687160008          0000          0000          0000          0000L71936724   2912045403-08-202000110189885001674383100309    0189         SB  1D1200801100309  N200801100309               1     
49191382****4400    MARIA CLAUDIA RODRIGUEZ ZAVALETA                     AV.PABLO CARRIQUIRRY                                 115                                                               URBEL PALOMAR                    L0027SAN ISIDRO                    LIMA                          LIMA                          PERU                                    150131AV.PABLO CARRIQUIRRI                                 115                                                                    URBEL PALOMAR                    L0027SAN ISIDRO                    LIMA                          LIMA                          PERU                                    1501310019892503005400137245470000          0000          0000          0000L43218836   2471790003-08-202000110377995001008121100272    0377         SH  1D2200801100272  N200801100272               186500
49190982****8035    ELISA COBOS BARRERA                                  CALANDRES RAZURI                                     37              CERCADO                                           NA NO APLICA                          PACASMAYO                     PACASMAYO                     LA LIBERTAD                   PERU                                    130704JR.ANDRES RAZURI                                     37      2                                                              NA NO APLICA                          PACASMAYO                     PACASMAYO                     LA LIBERTAD                   PERU                                    1307040019948589005800194288900021          0000          0000          0000L46381115   2558906403-08-202000110408235005609852100238    0291         SI  1D3200801100238  N200801100238               187100
51240982****5690    EVELYN JUANA YABAR CARRION                           PSJSANTA ISABEL                                      462             NTA ISABEL                                        URBSAN CARLOS                         HUANCAYO                      HUANCAYO                      JUNIN                         PERU                                    120101CALDEAN VALDIVIA                                     148     501     EX CALLE LOS ROSALES                                   NA NO APLICA                     L0027SAN ISIDRO                    LIMA                          LIMA                          PERU                                    15013100198699650006          0000          0000          0000          0000L46544004   2620855903-08-202000110408215007502826100275    0266         SQ  1D2200801100275  N200801100275               186600
41479182****5661    MARGOT ISOLINA CALDERON CARBAJAL                     CALENRIQUE LEON GARCIA                               573     202     ALTURA DE LA 38 DE BENAVIDES                      NA NO APLICA                     L0033SANTIAGO DE SURCO             LIMA                          LIMA                          PERU                                    150140CALENRIQUE LEON GARCIA                               573     202     ALTURA DE LA 38 DE BENAVIDES                           NA NO APLICA                     L0033SANTIAGO DE SURCO             LIMA                          LIMA                          PERU                                    150140001995484600740012102827000000127121360000          0000          0000L08148033   2059013603-08-202000110117955001728561100067    0486         SS  2T1200801100067  N200801100067               184100
41479182****5745    CARMEN CECILIA ALVARADO BRICENO                      CALJUAN BACH .                                       864             FRENTE A LA FABRICA                               URBPRIMAVERA                          TRUJILLO                      TRUJILLO                      LA LIBERTAD                   PERU                                    130101AV.AMERICA NORTE                                     2480            .                                                      URBPRIMAVERA                          TRUJILLO                      TRUJILLO                      LA LIBERTAD                   PERU                                    13010100194344490077          0000          0000          0000          0000L47801934   2780267103-08-202000110408235008082871100068    0900         SS  1D1200801100068  N200801100068               186600
41479182****6586    CLAUDIA PATRICIA MELGAREJO ALALUNA                   CALJOSE A LAVALLE                                    119     MZ J    LT 14                                             URBSAN JUAN BAUTISTA DE VILLA    L0009CHORRILLOS                    LIMA                          LIMA                          PERU                                    150108AV.MERINO REYNA                                      285                                                                    NA NO APLICA                     L0027SAN ISIDRO                    LIMA                          LIMA                          PERU                                    1501310019877458009700125408650000          0000          0000          0000L10632792   2324419703-08-202000110117905001677371100081    0849         SS  2T1200801100081  N200801100081               186600
41479182****6891    JOSE ANTONIO FALCONI HEREDIA                         CALRAVEL                                             168     DPTO301                                                   URBSAN BORJA SUR                 L0041SAN BORJA                     LIMA                          LIMA                          PERU                                    150130CALRAVEL                                             168     DPTO301                                                        URBSAN BORJA SUR                 L0041SAN BORJA                     LIMA                          LIMA                          PERU                                    150130001411595000000019537334005900122495910000          0000          0000L09867694   2086924303-08-202000110352205001066931100089    0486         SS  2T1200801100089  N200801100089               182100
41479182****8020    KASSANDRA VASQUEZ SITO                               JR.LAS TURQUESAS                                     550                                                               URBSANTA INES                         TRUJILLO                      TRUJILLO                      LA LIBERTAD                   PERU                                    130101CALLAS TURQUEZAS                                     550                                                                    URBSANTA INES                         TRUJILLO                      TRUJILLO                      LA LIBERTAD                   PERU                                    13010100194993070054          0000          0000          0000          0000L70657225   2631381003-08-202000110249025003567628100100    0249         SS  1D1200801100100  N200801100100               187100
41479182****8319    MARIA DEL PILAR RIVERA CAVERO                        CALPLAYA TOTORITAS .                                 SN              KM  80 DE PANAMERICA                              SECCASA VICTOR MARRUFO                MALA                          CA ETE                        LIMA                          PERU                                    150509CALPLAYA TOTORITAS .                                 SN              KM  80 DE PANAMERICA                                   SECCASA VICTOR MARRUFO                MALA                          CA ETE                        LIMA                          PERU                                    15050900199407290065          0000          0000          0000          0000L07267954   2019880803-08-202000110408215008397155100108    0117         SS  1T1200801100108  N200801100108               184100
41479182****8491    MIGUEL ALEXANDRE VASQUEZ SITO                        JR.LAS TURQUESAS                                     550                                                               URBSANTA INES                         TRUJILLO                      TRUJILLO                      LA LIBERTAD                   PERU                                    130101JR.LAS TURQUESAS                                     550                                                                    NA NO APLICA                          TRUJILLO                      TRUJILLO                      LA LIBERTAD                   PERU                                    13010100195781390085          0000          0000          0000          0000L70657226   2912045603-08-202000110249025003567628100111    0249         SS  1D1200801100111  N200801100111               1     
41408982****5787    MAYRA  IRENE DIAZ BONILLA                            AV.MELGAREJO                                         654     101     RENTA AL BCP                                      URBSANTA PATRICIA                L0012LA MOLINA                     LIMA                          LIMA                          PERU                                    150114CALLA PLATA                                          192                                                                    URBSAN EDUARDO                        CHICLAYO                      CHICLAYO                      LAMBAYEQUE                    PERU                                    14010100196625220007          0000          0000          0000          0000L44613220   2478612003-08-202000110785325002965888100013    0262         S11 2T 200801100013  N200801100013               186600
41408982****6207    PABLO MARTIN CORNEJO DE VINATEA                      CALPALACIO VIEJO 115                                 OF 23B          CLAUSTROS DE LA CIA                               NA NO APLICA                          AREQUIPA                      AREQUIPA                      AREQUIPA                      PERU                                    040101AV.REPUBLICA DE PANAMA                               3055                                                                   URBEL PALOMAR                    L0027SAN ISIDRO                    LIMA                          LIMA                          PERU                                    15013100144121120000001959707900080014848470000000195994800083          0000L29483403   2006805403-08-202000110220135001765521100016    0220         S11 2T 200801100016  N200801100016               182100
41406882****5550    FREDDY SEGUNDO DE LA CRUZ QUISPE                     CALANCASH .                                          351             ALT DEL AL ESTADIO U     ION                      NA NO APLICA                          TRUJILLO                      TRUJILLO                      LA LIBERTAD                   PERU                                    130101CALPUERTO RICO. .                                    197             A 2 CUADRA DEL ICPNA                                   NA NO APLICA                          TRUJILLO                      TRUJILLO                      LA LIBERTAD                   PERU                                    130101044481890 000000194956730001          0000          0000          0000L41097596   2747112203-08-202000110408215006750370100002    0251         S13 2T 200801100002  N200801100002               186600
55365082****5625    FRANCO DAVID MELCHIOR X                              AV.LA MERCED                                         1015    B502    MIRAFLORES                                        NA NO APLICA                     L0033SANTIAGO DE SURCO             LIMA                          LIMA                          PERU                                    150140AV.LA MOLINA                                         SN                                                                     NA NO APLICA                     L0003ATE                           LIMA                          LIMA                          PERU                                    15010300197045850011          0000          0000          0000          0000E001289657  2626491903-08-202000110504805000746993100295    0142         SB  1D1200801100295  N200801100295               186100
55365082****5708    JOSE HIGINIO SAN MARTIN VALLE                        CALGODOFREDO GARCIA                                  175     SN      ULTIMA CDRA DE AV S                               NA NO APLICA                     L0017MAGDALENA                     LIMA                          LIMA                          PERU                                    150120AV.JAVIER PRADO OESTE                                1520                                                                   NA NO APLICA                     L0027SAN ISIDRO                    LIMA                          LIMA                          PERU                                    1501310019537216002800199408620074          0000          0000          0000L43151017   2391218103-08-202000110408245007243030100296    0182         SB  2T1200801100296  N200801100296               186100
55365082****8405    CARLA FIORELLA DAVILA NAPRAVNIK                      CALBARCELONAAA                                       108             A                                                 NA NO APLICA                     L0027SAN ISIDRO                    LIMA                          LIMA                          PERU                                    150131CALBARCELONA                                         108                                                                    NA NO APLICA                     L0027SAN ISIDRO                    LIMA                          LIMA                          PERU                                    15013100199687160008          0000          0000          0000          0000L71936724   2912045403-08-202000110189885001674383100309    0189         SB  1D1200801100309  N200801100309               1     
49191382****4400    MARIA CLAUDIA RODRIGUEZ ZAVALETA                     AV.PABLO CARRIQUIRRY                                 115                                                               URBEL PALOMAR                    L0027SAN ISIDRO                    LIMA                          LIMA                          PERU                                    150131AV.PABLO CARRIQUIRRI                                 115                                                                    URBEL PALOMAR                    L0027SAN ISIDRO                    LIMA                          LIMA                          PERU                                    1501310019892503005400137245470000          0000          0000          0000L43218836   2471790003-08-202000110377995001008121100272    0377         SH  1D2200801100272  N200801100272               186500
49190982****8035    ELISA COBOS BARRERA                                  CALANDRES RAZURI                                     37              CERCADO                                           NA NO APLICA                          PACASMAYO                     PACASMAYO                     LA LIBERTAD                   PERU                                    130704JR.ANDRES RAZURI                                     37      2                                                              NA NO APLICA                          PACASMAYO                     PACASMAYO                     LA LIBERTAD                   PERU                                    1307040019948589005800194288900021          0000          0000          0000L46381115   2558906403-08-202000110408235005609852100238    0291         SI  1D3200801100238  N200801100238               187100
51240982****5690    EVELYN JUANA YABAR CARRION                           PSJSANTA ISABEL                                      462             NTA ISABEL                                        URBSAN CARLOS                         HUANCAYO                      HUANCAYO                      JUNIN                         PERU                                    120101CALDEAN VALDIVIA                                     148     501     EX CALLE LOS ROSALES                                   NA NO APLICA                     L0027SAN ISIDRO                    LIMA                          LIMA                          PERU                                    15013100198699650006          0000          0000          0000          0000L46544004   2620855903-08-202000110408215007502826100275    0266         SQ  1D2200801100275  N200801100275               186600
41479182****5661    MARGOT ISOLINA CALDERON CARBAJAL                     CALENRIQUE LEON GARCIA                               573     202     ALTURA DE LA 38 DE BENAVIDES                      NA NO APLICA                     L0033SANTIAGO DE SURCO             LIMA                          LIMA                          PERU                                    150140CALENRIQUE LEON GARCIA                               573     202     ALTURA DE LA 38 DE BENAVIDES                           NA NO APLICA                     L0033SANTIAGO DE SURCO             LIMA                          LIMA                          PERU                                    150140001995484600740012102827000000127121360000          0000          0000L08148033   2059013603-08-202000110117955001728561100067    0486         SS  2T1200801100067  N200801100067               184100
41479182****5745    CARMEN CECILIA ALVARADO BRICENO                      CALJUAN BACH .                                       864             FRENTE A LA FABRICA                               URBPRIMAVERA                          TRUJILLO                      TRUJILLO                      LA LIBERTAD                   PERU                                    130101AV.AMERICA NORTE                                     2480            .                                                      URBPRIMAVERA                          TRUJILLO                      TRUJILLO                      LA LIBERTAD                   PERU                                    13010100194344490077          0000          0000          0000          0000L47801934   2780267103-08-202000110408235008082871100068    0900         SS  1D1200801100068  N200801100068               186600
41479182****6586    CLAUDIA PATRICIA MELGAREJO ALALUNA                   CALJOSE A LAVALLE                                    119     MZ J    LT 14                                             URBSAN JUAN BAUTISTA DE VILLA    L0009CHORRILLOS                    LIMA                          LIMA                          PERU                                    150108AV.MERINO REYNA                                      285                                                                    NA NO APLICA                     L0027SAN ISIDRO                    LIMA                          LIMA                          PERU                                    1501310019877458009700125408650000          0000          0000          0000L10632792   2324419703-08-202000110117905001677371100081    0849         SS  2T1200801100081  N200801100081               186600
41479182****6891    JOSE ANTONIO FALCONI HEREDIA                         CALRAVEL                                             168     DPTO301                                                   URBSAN BORJA SUR                 L0041SAN BORJA                     LIMA                          LIMA                          PERU                                    150130CALRAVEL                                             168     DPTO301                                                        URBSAN BORJA SUR                 L0041SAN BORJA                     LIMA                          LIMA                          PERU                                    150130001411595000000019537334005900122495910000          0000          0000L09867694   2086924303-08-202000110352205001066931100089    0486         SS  2T1200801100089  N200801100089               182100
41479182****8020    KASSANDRA VASQUEZ SITO                               JR.LAS TURQUESAS                                     550                                                               URBSANTA INES                         TRUJILLO                      TRUJILLO                      LA LIBERTAD                   PERU                                    130101CALLAS TURQUEZAS                                     550                                                                    URBSANTA INES                         TRUJILLO                      TRUJILLO                      LA LIBERTAD                   PERU                                    13010100194993070054          0000          0000          0000          0000L70657225   2631381003-08-202000110249025003567628100100    0249         SS  1D1200801100100  N200801100100               187100
41479182****8319    MARIA DEL PILAR RIVERA CAVERO                        CALPLAYA TOTORITAS .                                 SN              KM  80 DE PANAMERICA                              SECCASA VICTOR MARRUFO                MALA                          CA ETE                        LIMA                          PERU                                    150509CALPLAYA TOTORITAS .                                 SN              KM  80 DE PANAMERICA                                   SECCASA VICTOR MARRUFO                MALA                          CA ETE                        LIMA                          PERU                                    15050900199407290065          0000          0000          0000          0000L07267954   2019880803-08-202000110408215008397155100108    0117         SS  1T1200801100108  N200801100108               184100
41479182****8491    MIGUEL ALEXANDRE VASQUEZ SITO                        JR.LAS TURQUESAS                                     550                                                               URBSANTA INES                         TRUJILLO                      TRUJILLO                      LA LIBERTAD                   PERU                                    130101JR.LAS TURQUESAS                                     550                                                                    NA NO APLICA                          TRUJILLO                      TRUJILLO                      LA LIBERTAD                   PERU                                    13010100195781390085          0000          0000          0000          0000L70657226   2912045603-08-202000110249025003567628100111    0249         SS  1D1200801100111  N200801100111               1     
41408982****5787    MAYRA  IRENE DIAZ BONILLA                            AV.MELGAREJO                                         654     101     RENTA AL BCP                                      URBSANTA PATRICIA                L0012LA MOLINA                     LIMA                          LIMA                          PERU                                    150114CALLA PLATA                                          192                                                                    URBSAN EDUARDO                        CHICLAYO                      CHICLAYO                      LAMBAYEQUE                    PERU                                    14010100196625220007          0000          0000          0000          0000L44613220   2478612003-08-202000110785325002965888100013    0262         S11 2T 200801100013  N200801100013               186600
41408982****6207    PABLO MARTIN CORNEJO DE VINATEA                      CALPALACIO VIEJO 115                                 OF 23B          CLAUSTROS DE LA CIA                               NA NO APLICA                          AREQUIPA                      AREQUIPA                      AREQUIPA                      PERU                                    040101AV.REPUBLICA DE PANAMA                               3055                                                                   URBEL PALOMAR                    L0027SAN ISIDRO                    LIMA                          LIMA                          PERU                                    15013100144121120000001959707900080014848470000000195994800083          0000L29483403   2006805403-08-202000110220135001765521100016    0220         S11 2T 200801100016  N200801100016               182100
41406882****5550    FREDDY SEGUNDO DE LA CRUZ QUISPE                     CALANCASH .                                          351             ALT DEL AL ESTADIO U     ION                      NA NO APLICA                          TRUJILLO                      TRUJILLO                      LA LIBERTAD                   PERU                                    130101CALPUERTO RICO. .                                    197             A 2 CUADRA DEL ICPNA                                   NA NO APLICA                          TRUJILLO                      TRUJILLO                      LA LIBERTAD                   PERU                                    130101044481890 000000194956730001          0000          0000          0000L41097596   2747112203-08-202000110408215006750370100002    0251         S13 2T 200801100002  N200801100002               186600
55365082****5625    FRANCO DAVID MELCHIOR X                              AV.LA MERCED                                         1015    B502    MIRAFLORES                                        NA NO APLICA                     L0033SANTIAGO DE SURCO             LIMA                          LIMA                          PERU                                    150140AV.LA MOLINA                                         SN                                                                     NA NO APLICA                     L0003ATE                           LIMA                          LIMA                          PERU                                    15010300197045850011          0000          0000          0000          0000E001289657  2626491903-08-202000110504805000746993100295    0142         SB  1D1200801100295  N200801100295               186100
55365082****5708    JOSE HIGINIO SAN MARTIN VALLE                        CALGODOFREDO GARCIA                                  175     SN      ULTIMA CDRA DE AV S                               NA NO APLICA                     L0017MAGDALENA                     LIMA                          LIMA                          PERU                                    150120AV.JAVIER PRADO OESTE                                1520                                                                   NA NO APLICA                     L0027SAN ISIDRO                    LIMA                          LIMA                          PERU                                    1501310019537216002800199408620074          0000          0000          0000L43151017   2391218103-08-202000110408245007243030100296    0182         SB  2T1200801100296  N200801100296               186100
55365082****8405    CARLA FIORELLA DAVILA NAPRAVNIK                      CALBARCELONAAA                                       108             A                                                 NA NO APLICA                     L0027SAN ISIDRO                    LIMA                          LIMA                          PERU                                    150131CALBARCELONA                                         108                                                                    NA NO APLICA                     L0027SAN ISIDRO                    LIMA                          LIMA                          PERU                                    15013100199687160008          0000          0000          0000          0000L71936724   2912045403-08-202000110189885001674383100309    0189         SB  1D1200801100309  N200801100309               1     
49191382****4400    MARIA CLAUDIA RODRIGUEZ ZAVALETA                     AV.PABLO CARRIQUIRRY                                 115                                                               URBEL PALOMAR                    L0027SAN ISIDRO                    LIMA                          LIMA                          PERU                                    150131AV.PABLO CARRIQUIRRI                                 115                                                                    URBEL PALOMAR                    L0027SAN ISIDRO                    LIMA                          LIMA                          PERU                                    1501310019892503005400137245470000          0000          0000          0000L43218836   2471790003-08-202000110377995001008121100272    0377         SH  1D2200801100272  N200801100272               186500
49190982****8035    ELISA COBOS BARRERA                                  CALANDRES RAZURI                                     37              CERCADO                                           NA NO APLICA                          PACASMAYO                     PACASMAYO                     LA LIBERTAD                   PERU                                    130704JR.ANDRES RAZURI                                     37      2                                                              NA NO APLICA                          PACASMAYO                     PACASMAYO                     LA LIBERTAD                   PERU                                    1307040019948589005800194288900021          0000          0000          0000L46381115   2558906403-08-202000110408235005609852100238    0291         SI  1D3200801100238  N200801100238               187100
51240982****5690    EVELYN JUANA YABAR CARRION                           PSJSANTA ISABEL                                      462             NTA ISABEL                                        URBSAN CARLOS                         HUANCAYO                      HUANCAYO                      JUNIN                         PERU                                    120101CALDEAN VALDIVIA                                     148     501     EX CALLE LOS ROSALES                                   NA NO APLICA                     L0027SAN ISIDRO                    LIMA                          LIMA                          PERU                                    15013100198699650006          0000          0000          0000          0000L46544004   2620855903-08-202000110408215007502826100275    0266         SQ  1D2200801100275  N200801100275               186600
41479182****5661    MARGOT ISOLINA CALDERON CARBAJAL                     CALENRIQUE LEON GARCIA                               573     202     ALTURA DE LA 38 DE BENAVIDES                      NA NO APLICA                     L0033SANTIAGO DE SURCO             LIMA                          LIMA                          PERU                                    150140CALENRIQUE LEON GARCIA                               573     202     ALTURA DE LA 38 DE BENAVIDES                           NA NO APLICA                     L0033SANTIAGO DE SURCO             LIMA                          LIMA                          PERU                                    150140001995484600740012102827000000127121360000          0000          0000L08148033   2059013603-08-202000110117955001728561100067    0486         SS  2T1200801100067  N200801100067               184100
41479182****5745    CARMEN CECILIA ALVARADO BRICENO                      CALJUAN BACH .                                       864             FRENTE A LA FABRICA                               URBPRIMAVERA                          TRUJILLO                      TRUJILLO                      LA LIBERTAD                   PERU                                    130101AV.AMERICA NORTE                                     2480            .                                                      URBPRIMAVERA                          TRUJILLO                      TRUJILLO                      LA LIBERTAD                   PERU                                    13010100194344490077          0000          0000          0000          0000L47801934   2780267103-08-202000110408235008082871100068    0900         SS  1D1200801100068  N200801100068               186600
41479182****6586    CLAUDIA PATRICIA MELGAREJO ALALUNA                   CALJOSE A LAVALLE                                    119     MZ J    LT 14                                             URBSAN JUAN BAUTISTA DE VILLA    L0009CHORRILLOS                    LIMA                          LIMA                          PERU                                    150108AV.MERINO REYNA                                      285                                                                    NA NO APLICA                     L0027SAN ISIDRO                    LIMA                          LIMA                          PERU                                    1501310019877458009700125408650000          0000          0000          0000L10632792   2324419703-08-202000110117905001677371100081    0849         SS  2T1200801100081  N200801100081               186600
41479182****6891    JOSE ANTONIO FALCONI HEREDIA                         CALRAVEL                                             168     DPTO301                                                   URBSAN BORJA SUR                 L0041SAN BORJA                     LIMA                          LIMA                          PERU                                    150130CALRAVEL                                             168     DPTO301                                                        URBSAN BORJA SUR                 L0041SAN BORJA                     LIMA                          LIMA                          PERU                                    150130001411595000000019537334005900122495910000          0000          0000L09867694   2086924303-08-202000110352205001066931100089    0486         SS  2T1200801100089  N200801100089               182100
41479182****8020    KASSANDRA VASQUEZ SITO                               JR.LAS TURQUESAS                                     550                                                               URBSANTA INES                         TRUJILLO                      TRUJILLO                      LA LIBERTAD                   PERU                                    130101CALLAS TURQUEZAS                                     550                                                                    URBSANTA INES                         TRUJILLO                      TRUJILLO                      LA LIBERTAD                   PERU                                    13010100194993070054          0000          0000          0000          0000L70657225   2631381003-08-202000110249025003567628100100    0249         SS  1D1200801100100  N200801100100               187100
41479182****8319    MARIA DEL PILAR RIVERA CAVERO                        CALPLAYA TOTORITAS .                                 SN              KM  80 DE PANAMERICA                              SECCASA VICTOR MARRUFO                MALA                          CA ETE                        LIMA                          PERU                                    150509CALPLAYA TOTORITAS .                                 SN              KM  80 DE PANAMERICA                                   SECCASA VICTOR MARRUFO                MALA                          CA ETE                        LIMA                          PERU                                    15050900199407290065          0000          0000          0000          0000L07267954   2019880803-08-202000110408215008397155100108    0117         SS  1T1200801100108  N200801100108               184100
41479182****8491    MIGUEL ALEXANDRE VASQUEZ SITO                        JR.LAS TURQUESAS                                     550                                                               URBSANTA INES                         TRUJILLO                      TRUJILLO                      LA LIBERTAD                   PERU                                    130101JR.LAS TURQUESAS                                     550                                                                    NA NO APLICA                          TRUJILLO                      TRUJILLO                      LA LIBERTAD                   PERU                                    13010100195781390085          0000          0000          0000          0000L70657226   2912045603-08-202000110249025003567628100111    0249         SS  1D1200801100111  N200801100111               1     
41408982****5787    MAYRA  IRENE DIAZ BONILLA                            AV.MELGAREJO                                         654     101     RENTA AL BCP                                      URBSANTA PATRICIA                L0012LA MOLINA                     LIMA                          LIMA                          PERU                                    150114CALLA PLATA                                          192                                                                    URBSAN EDUARDO                        CHICLAYO                      CHICLAYO                      LAMBAYEQUE                    PERU                                    14010100196625220007          0000          0000          0000          0000L44613220   2478612003-08-202000110785325002965888100013    0262         S11 2T 200801100013  N200801100013               186600
41408982****6207    PABLO MARTIN CORNEJO DE VINATEA                      CALPALACIO VIEJO 115                                 OF 23B          CLAUSTROS DE LA CIA                               NA NO APLICA                          AREQUIPA                      AREQUIPA                      AREQUIPA                      PERU                                    040101AV.REPUBLICA DE PANAMA                               3055                                                                   URBEL PALOMAR                    L0027SAN ISIDRO                    LIMA                          LIMA                          PERU                                    15013100144121120000001959707900080014848470000000195994800083          0000L29483403   2006805403-08-202000110220135001765521100016    0220         S11 2T 200801100016  N200801100016               182100
41406882****5550    FREDDY SEGUNDO DE LA CRUZ QUISPE                     CALANCASH .                                          351             ALT DEL AL ESTADIO U     ION                      NA NO APLICA                          TRUJILLO                      TRUJILLO                      LA LIBERTAD                   PERU                                    130101CALPUERTO RICO. .                                    197             A 2 CUADRA DEL ICPNA                                   NA NO APLICA                          TRUJILLO                      TRUJILLO                      LA LIBERTAD                   PERU                                    130101044481890 000000194956730001          0000          0000          0000L41097596   2747112203-08-202000110408215006750370100002    0251         S13 2T 200801100002  N200801100002               186600
55365082****5625    FRANCO DAVID MELCHIOR X                              AV.LA MERCED                                         1015    B502    MIRAFLORES                                        NA NO APLICA                     L0033SANTIAGO DE SURCO             LIMA                          LIMA                          PERU                                    150140AV.LA MOLINA                                         SN                                                                     NA NO APLICA                     L0003ATE                           LIMA                          LIMA                          PERU                                    15010300197045850011          0000          0000          0000          0000E001289657  2626491903-08-202000110504805000746993100295    0142         SB  1D1200801100295  N200801100295               186100
55365082****5708    JOSE HIGINIO SAN MARTIN VALLE                        CALGODOFREDO GARCIA                                  175     SN      ULTIMA CDRA DE AV S                               NA NO APLICA                     L0017MAGDALENA                     LIMA                          LIMA                          PERU                                    150120AV.JAVIER PRADO OESTE                                1520                                                                   NA NO APLICA                     L0027SAN ISIDRO                    LIMA                          LIMA                          PERU                                    1501310019537216002800199408620074          0000          0000          0000L43151017   2391218103-08-202000110408245007243030100296    0182         SB  2T1200801100296  N200801100296               186100
55365082****8405    CARLA FIORELLA DAVILA NAPRAVNIK                      CALBARCELONAAA                                       108             A                                                 NA NO APLICA                     L0027SAN ISIDRO                    LIMA                          LIMA                          PERU                                    150131CALBARCELONA                                         108                                                                    NA NO APLICA                     L0027SAN ISIDRO                    LIMA                          LIMA                          PERU                                    15013100199687160008          0000          0000          0000          0000L71936724   2912045403-08-202000110189885001674383100309    0189         SB  1D1200801100309  N200801100309               1     
49191382****4400    MARIA CLAUDIA RODRIGUEZ ZAVALETA                     AV.PABLO CARRIQUIRRY                                 115                                                               URBEL PALOMAR                    L0027SAN ISIDRO                    LIMA                          LIMA                          PERU                                    150131AV.PABLO CARRIQUIRRI                                 115                                                                    URBEL PALOMAR                    L0027SAN ISIDRO                    LIMA                          LIMA                          PERU                                    1501310019892503005400137245470000          0000          0000          0000L43218836   2471790003-08-202000110377995001008121100272    0377         SH  1D2200801100272  N200801100272               186500
49190982****8035    ELISA COBOS BARRERA                                  CALANDRES RAZURI                                     37              CERCADO                                           NA NO APLICA                          PACASMAYO                     PACASMAYO                     LA LIBERTAD                   PERU                                    130704JR.ANDRES RAZURI                                     37      2                                                              NA NO APLICA                          PACASMAYO                     PACASMAYO                     LA LIBERTAD                   PERU                                    1307040019948589005800194288900021          0000          0000          0000L46381115   2558906403-08-202000110408235005609852100238    0291         SI  1D3200801100238  N200801100238               187100
51240982****5690    EVELYN JUANA YABAR CARRION                           PSJSANTA ISABEL                                      462             NTA ISABEL                                        URBSAN CARLOS                         HUANCAYO                      HUANCAYO                      JUNIN                         PERU                                    120101CALDEAN VALDIVIA                                     148     501     EX CALLE LOS ROSALES                                   NA NO APLICA                     L0027SAN ISIDRO                    LIMA                          LIMA                          PERU                                    15013100198699650006          0000          0000          0000          0000L46544004   2620855903-08-202000110408215007502826100275    0266         SQ  1D2200801100275  N200801100275               186600
41479182****5661    MARGOT ISOLINA CALDERON CARBAJAL                     CALENRIQUE LEON GARCIA                               573     202     ALTURA DE LA 38 DE BENAVIDES                      NA NO APLICA                     L0033SANTIAGO DE SURCO             LIMA                          LIMA                          PERU                                    150140CALENRIQUE LEON GARCIA                               573     202     ALTURA DE LA 38 DE BENAVIDES                           NA NO APLICA                     L0033SANTIAGO DE SURCO             LIMA                          LIMA                          PERU                                    150140001995484600740012102827000000127121360000          0000          0000L08148033   2059013603-08-202000110117955001728561100067    0486         SS  2T1200801100067  N200801100067               184100
41479182****5745    CARMEN CECILIA ALVARADO BRICENO                      CALJUAN BACH .                                       864             FRENTE A LA FABRICA                               URBPRIMAVERA                          TRUJILLO                      TRUJILLO                      LA LIBERTAD                   PERU                                    130101AV.AMERICA NORTE                                     2480            .                                                      URBPRIMAVERA                          TRUJILLO                      TRUJILLO                      LA LIBERTAD                   PERU                                    13010100194344490077          0000          0000          0000          0000L47801934   2780267103-08-202000110408235008082871100068    0900         SS  1D1200801100068  N200801100068               186600
41479182****6586    CLAUDIA PATRICIA MELGAREJO ALALUNA                   CALJOSE A LAVALLE                                    119     MZ J    LT 14                                             URBSAN JUAN BAUTISTA DE VILLA    L0009CHORRILLOS                    LIMA                          LIMA                          PERU                                    150108AV.MERINO REYNA                                      285                                                                    NA NO APLICA                     L0027SAN ISIDRO                    LIMA                          LIMA                          PERU                                    1501310019877458009700125408650000          0000          0000          0000L10632792   2324419703-08-202000110117905001677371100081    0849         SS  2T1200801100081  N200801100081               186600
41479182****6891    JOSE ANTONIO FALCONI HEREDIA                         CALRAVEL                                             168     DPTO301                                                   URBSAN BORJA SUR                 L0041SAN BORJA                     LIMA                          LIMA                          PERU                                    150130CALRAVEL                                             168     DPTO301                                                        URBSAN BORJA SUR                 L0041SAN BORJA                     LIMA                          LIMA                          PERU                                    150130001411595000000019537334005900122495910000          0000          0000L09867694   2086924303-08-202000110352205001066931100089    0486         SS  2T1200801100089  N200801100089               182100
41479182****8020    KASSANDRA VASQUEZ SITO                               JR.LAS TURQUESAS                                     550                                                               URBSANTA INES                         TRUJILLO                      TRUJILLO                      LA LIBERTAD                   PERU                                    130101CALLAS TURQUEZAS                                     550                                                                    URBSANTA INES                         TRUJILLO                      TRUJILLO                      LA LIBERTAD                   PERU                                    13010100194993070054          0000          0000          0000          0000L70657225   2631381003-08-202000110249025003567628100100    0249         SS  1D1200801100100  N200801100100               187100
41479182****8319    MARIA DEL PILAR RIVERA CAVERO                        CALPLAYA TOTORITAS .                                 SN              KM  80 DE PANAMERICA                              SECCASA VICTOR MARRUFO                MALA                          CA ETE                        LIMA                          PERU                                    150509CALPLAYA TOTORITAS .                                 SN              KM  80 DE PANAMERICA                                   SECCASA VICTOR MARRUFO                MALA                          CA ETE                        LIMA                          PERU                                    15050900199407290065          0000          0000          0000          0000L07267954   2019880803-08-202000110408215008397155100108    0117         SS  1T1200801100108  N200801100108               184100
41479182****8491    MIGUEL ALEXANDRE VASQUEZ SITO                        JR.LAS TURQUESAS                                     550                                                               URBSANTA INES                         TRUJILLO                      TRUJILLO                      LA LIBERTAD                   PERU                                    130101JR.LAS TURQUESAS                                     550                                                                    NA NO APLICA                          TRUJILLO                      TRUJILLO                      LA LIBERTAD                   PERU                                    13010100195781390085          0000          0000          0000          0000L70657226   2912045603-08-202000110249025003567628100111    0249         SS  1D1200801100111  N200801100111               1     
