00337775306       9999999999999999199999999999999991905261020400040 TLUIS PONCE                    LUIS                          PONCE                         ARNILLAS                      144047937    250520191CL SABASTIAN DE TELLERIA NRO 262                                                                                                                                               L27       150131LIMA                          LIMA                          SAN ISIDRO                    967659696 CL SABASTIAN DE TELLERIA NRO 262                                                                                                                                               L27       150131LIMA                          LIMA                          SAN ISIDRO                    4422148   CL SABASTIAN DE TELLERIA NRO 262                                                                                                                                               L27             LIMA                          LIMA                          SAN ISIDRO                    967659696                                         0                                                              0                      CONGRESO DE LA REPUBLICA                                    M            0000000000314988614AE304493           0327256    0           4525130          0204    1                                                                                                                  N                                                                                                                                                                                                                                                                                                                                                                                                                                                                                                                                   
00337775306       9999999999999999299999999999999991905261020400126 TANTONIA NOLAZCO               ANTONIA                       NOLAZCO                       VASQUEZ                       147751940    260520191JR DANTE NRO 1074                                                                                                                                                              L34       150141LIMA                          LIMA                          SURQUILLO                     926684923                                                                                                                                                                                                                                                                                          943397200 JR DANTE NRO 1074                                                                                                                                                              L34             LIMA                          LIMA                          SURQUILLO                     926684923                                         0                                                              0                      BANCO INTERNACIONAL DEL PERU-INTERBANK                      M            0000000000314988615AE304484           0327256    0           4628610          0204    1                                                                                                                  N                                                                                                                                                                                                                                                                                                                                                                                                                                                                                                                                   
00337775306       9999999999999999199999999999999991905261020400084 TPASTRANA ALDO                 ALDO                          PASTRANA                      CHACA                         144433563    260520191JR RIO MANTARO NRO 638                                                                                                  LA CDRA 52 DE AV LAS PALMERAS                          L39       150117LIMA                          LIMA                          LOS OLIVOS                    962347280                                                                                                                                                                                                                                                                                          997050368 JR RIO MANTARO NRO 638                                                                                                  LA CDRA 52 DE AV LAS PALMERAS                          L39             LIMA                          LIMA                          LOS OLIVOS                    962347280                                         0                                                              0                      MIBANCO - BANCO DE LA MICROEMPRESA S.A.                     M            0000000000314988616AE304483           0327256    0           4642041          0204    1                                                                                                                  N                                                                                                                                                                                                                                                                                                                                                                                                                                                                                                                                   
00337775306       9999999999999999299999999999999991905261020400015 TELIZABETH SANCHEZ             ELIZABETH                     SANCHEZ                       DE LA CRUZ                    144613301    250520191AV SANTA ROSA MZ G LT 4                                                                                                                                                        L36       150132LIMA                          LIMA                          SAN JUAN DE LURIGANCHO        991035977 AV SANTA ROSA MZ G LT 4                                                                                                                                                        L36       150132LIMA                          LIMA                          SAN JUAN DE LURIGANCHO                  AV SANTA ROSA MZ G LT 4                                                                                                                                                        L36             LIMA                          LIMA                          SAN JUAN DE LURIGANCHO        991035977                                         0                                                              0                                                                                  M            0000000000314988617AE304482           0327256    0           4700626          0204    1                                                                                                                  N                                                                                                                                                                                                                                                                                                                                                                                                                                                                                                                                   
00337775306       9999999999999999199999999999999991905261020400176 TPERCEVERANDA PARDO            PERCEVERANDA                  PARDO                         CHAMBA                        180222234    270520193UR JORGE BASADRE MZ A LT 10                                                                                                                                                    PIU       200101PIURA                         PIURA                         PIURA                         917865325 AHLA MOLINA II ETAPA SECTOR B     L1   18                                                                                                                                      PIU       200115PIURA                         PIURA                         PIURA                         969197091 UR JORGE BASADRE MZ A LT 10                                                                                             POR  PRONOI                                            PIU       200101PIURA                         PIURA                         PIURA                         969197099                                         0                                                              0                      PARDO CHAMBA ABEL                                           M            0000000000314988618AE304466           0327256    0           4813216          0204    1                                                                                                                  N                                                                                                                                                                                                                                                                                                                                                                                                                                                                                                                                   
00337775306       9999999999999999199999999999999991905261020400001 TMILENI LLAJA                  MILENI                        LLAJA                         ZELADA                        141078495    250520193JR CUTERVO NRO 1818                                                                                                                                                            L01       150101LIMA                          LIMA                          LIMA                          940498172 JR CUTERVO 1818 NRO 1818 INT U                                                                                          ALTURA DEL PUENTE TINGO MARIA                          L01       150101LIMA                          LIMA                          LIMA                          994235251 AV LOS ROBLES 141                                                                                                                                                              L10       150111LIMA                          LIMA                          EL AGUSTINO                   945943828                                         0                                                              0                      CIA. IND. TEXTIL CREDISA-TRUTEX S.A.A.                      M            0000000000314988619AE304465           0327256    0           4819986          0204    1                                                                                                                  N                                                                                                                                                                                                                                                                                                                                                                                                                                                                                                                                   
00337775306       9999999999999999199999999999999991905261020400132 TJOSE RAMOS                    JOSE                          RAMOS                         PACHAS                        144208122    270520191JR CALLAO NRO 402                                                                                                                                                              L01       150101LIMA                          LIMA                          LIMA                          990047720 CL AREQUIPA NRO 100                                                                                                                                                            IC        110501ICA                           PISCO                         PISCO                         3352678   JR CALLAO NRO 402                                                                                                                                                              L01             LIMA                          LIMA                          LIMA                          990047720                                         0                                                              0                      MINISTERIO DE EDUCACION                                     M            0000000000314988620AE304463           0327256    0           4821255          0204    1                                                                                                                  N                                                                                                                                                                                                                                                                                                                                                                                                                                                                                                                                   
00337775306       9999999999999999199999999999999991905261020400057 TJUAN URQUIA                   JUAN                          URQUIA                        GONZALEZ                      143621552    250520191AV RENOVACION NRO 160                                                                                                                                                          LL        130401LA LIBERTAD                   CHEPEN                        CHEPEN                        962742386 CL LA PURISIMA MZ 29 LT 21 INT 0                                                                                                                                               LB        140102LAMBAYEQUE                    CHICLAYO                      CHONGOYAPE                    948160149 AV RENOVACION NRO 160                                                                                                                                                          LL              LA LIBERTAD                   CHEPEN                        CHEPEN                        979019353                                         0                                                              0                      CMAC PIURA S.A.C.                                           M            0000000000314988621AE304460           0327256    0           4829343          0204    1                                                                                                                  N                                                                                                                                                                                                                                                                                                                                                                                                                                                                                                                                   
00337775306       9999999999999999199999999999999991905261020400029 TCARLOS ESPINOZA E.            CARLOS                        ESPINOZA                      ESPINOZA                      110313559    250520193PS PASEO DE LA REPUBLICA 7719  INT 303                                                                                  ALT CON 1 AV AYACUCHO                                  L33       150140LIMA                          LIMA                          SANTIAGO DE SURCO             996176711 PS PASEO DE LA REPUBLICA 7719  INT 303ALT CON 1 AV AYACUCHO                                                                                                                    L33       150140LIMA                          LIMA                          SANTIAGO DE SURCO             4775466   PROLG PS DE LA REPUBLICA MZ B2 LT4 303                                                                                                                                         L33       150140LIMA                          LIMA                          SANTIAGO DE SURCO             996176499                                         0                                                              0                      ESSALUD                                                     M            0000000000314988622AE304497           0327256    0           0668650          0204    1                                                                                                                  N                                                                                                                                                                                                                                                                                                                                                                                                                                                                                                                                   
00337775306       9999999999999999199999999999999991905261020400082 TEVELYN VALLADARES             EVELYN                        VALLADARES                    CHAVEZ                        145760843    260520191PJ SB CONSTRUCTORES MZ B LT 23                                                                                                                                                 L36       150132LIMA                          LIMA                          SAN JUAN DE LURIGANCHO        950133500 UR CIUDAD LOS CONSTRUCTORES MZ B LT 23                                                                                  ALT 7 AV MARIATEGUI HACIA LA DERECHA                   L36       150132LIMA                          LIMA                          SAN JUAN DE LURIGANCHO        992536312 PJ SB CONSTRUCTORES MZ B LT 23                                                                                                                                                 L36             LIMA                          LIMA                          SAN JUAN DE LURIGANCHO        975059447                                         0                                                              0                      ADECCO PERU S.A.                                            M            0000000000314988623AE304021           0327256    0           6326215          0204    1                                                                                                                  N                                                                                                                                                                                                                                                                                                                                                                                                                                                                                                                                   
00337775306       9999999999999999199999999999999991905261020400157 TDORIS VELA                    DORIS                         VELA                          ZAMORA                        106860157    270520191JR REPUBLICA DE CHILE NRO 145 URB HUAQUILLAY                                                                                                                                   L07       150110LIMA                          LIMA                          COMAS                         943442397 JR REPUBLICA DE CHILE 145   URB HUAQUILLALT KM 12 AV TUPAC AMARU                                                                                                               L07       150110LIMA                          LIMA                          COMAS                         958038083 JR REPUBLICA DE CHILE NRO 145 URB HUAQUILLAY                                                                                                                                   L07             LIMA                          LIMA                          COMAS                         958038083                                         0                                                              0                      IRON MOUNTAIN PERU S.A.                                     M            0000000000314988624AE304020           0327256    0           6329306          0204    1                                                                                                                  N                                                                                                                                                                                                                                                                                                                                                                                                                                                                                                                                   
00337775306       9999999999999999199999999999999991905261020400136 TJUAN PACHECO                  JUAN                          PACHECO                       CUYAHUACHO                    107497966    270520191JR HIPOLITO UNANUE NRO 1278                                                                                                                                                    L13       150115LIMA                          LIMA                          LA VICTORIA                   998127982 JR UNANUE NRO 1278                                                                                                      A TRES CDRAS DEL PARQUE CANEPA                         L13       150115LIMA                          LIMA                          LA VICTORIA                             JR HIPOLITO UNANUE NRO 1278                                                                                                                                                    L13             LIMA                          LIMA                          LA VICTORIA                   999945745                                         0                                                              0                                                                                  M            0000000000314988625AE304013           0327256    0           6565426          0204    1                                                                                                                  N                                                                                                                                                                                                                                                                                                                                                                                                                                                                                                                                   
00337775306       9999999999999999199999999999999991905261020400008 TMARCO CHAVEZ                  MARCO                         CHAVEZ                        CHAHUAYO                      142498912    250520191PJ MARIANO MELGAR MZ F LT 3                                                                                                                                                    L28       150112LIMA                          LIMA                          INDEPENDENCIA                 980524004 PJ MARIANO MELGAR MZ F LT 03                                                                                                                                                   L28       150112LIMA                          LIMA                          INDEPENDENCIA                 5442445   PJ MARIANO MELGAR MZ F LT 3                                                                                                                                                    L28             LIMA                          LIMA                          INDEPENDENCIA                 992254950                                         0                                                              0                      INSTALACIONES REFRACTARIAS Y AFINES S.A.                    M            0000000000314988626AE303987           0327256    0           6774178          0204    1                                                                                                                  N                                                                                                                                                                                                                                                                                                                                                                                                                                                                                                                                   
00337775306       9999999999999999199999999999999991905261020400013 TPERCY PACO                    PERCY                         PACO                          FLORES                        100517092    250520191CL ISAC RECABARREN NRO 356 URB LOS FICUS                                                                                                                                       L43       150137LIMA                          LIMA                          SANTA ANITA                   936372003                                                                                                                                                                                                                                                                                                    CL ISAC RECABARREN NRO 356 URB LOS FICUS                                                                                                                                       L43             LIMA                          LIMA                          SANTA ANITA                   936372003                                         0                                                              0                                                                                  M            0000000000314988627AE303963           0327256    0           7122494          0204    1                                                                                                                  N                                                                                                                                                                                                                                                                                                                                                                                                                                                                                                                                   
00337775306       9999999999999999199999999999999991905261020400085 TI SILVA SANTISTEBAN           IVANA                         SILVA SANTISTEBAN             INURRITEGUI                   141771305    260520191CL GRIMALDO DEL SOLAR NRO 318 INT 303                                                                                   ALT CDRA 7 DE LA AV BENAVIDES                          L18       150122LIMA                          LIMA                          MIRAFLORES                    970195120                                                                                                                                                                                                                                                                                          999881841 CL GRIMALDO DEL SOLAR NRO 318 INT 303                                                                                   ALT CDRA 7 DE LA AV BENAVIDES                          L18             LIMA                          LIMA                          MIRAFLORES                    991987249                                         0                                                              0                      COMPAÑIA MINERA MILPO S.A.A.                                M            0000000000314988628AE303962           0327256    0           7142723          0204    1                                                                                                                  N                                                                                                                                                                                                                                                                                                                                                                                                                                                                                                                                   
00337775306       9999999999999999199999999999999991905261020400102 TYOSSELYN SALVADOR             YOSSELYN                      SALVADOR                      BLAS                          148278281    260520191AS ASOC DE VIVIENDA LAS GARDENIAS MZ B LT 10                                                                            ALT DEL OVALO PUENTE Y PLAZA VEA                       L06       150106LIMA                          LIMA                          CARABAYLLO                    920033727                                                                                                                                                                                                                                                                                                    AS ASOC DE VIVIENDA LAS GARDENIAS MZ B LT 10                                                                            ALT DEL OVALO PUENTE Y PLAZA VEA                       L06             LIMA                          LIMA                          CARABAYLLO                    940213850                                         0                                                              0                      TRICAR MOTORS S.A.C.                                        M            0000000000314988629AE303961           0327256    0           7150550          0204    1                                                                                                                  N                                                                                                                                                                                                                                                                                                                                                                                                                                                                                                                                   
00337775306       9999999999999999199999999999999991905261020400137 TVERONICA CONZA                VERONICA                      CONZA                         CHIRE                         109595352    270520191PR CANGALLO NRO 709                                                                                                                                                            L13       150115LIMA                          LIMA                          LA VICTORIA                   950125514                                                                                                                                                                                                                                                                                                    PR CANGALLO NRO 709                                                                                                                                                            L13             LIMA                          LIMA                          LA VICTORIA                   969350831                                         0                                                              0                                                                                  M            0000000000314988630AE304009           0327256    0           6599983          0204    1                                                                                                                  N                                                                                                                                                                                                                                                                                                                                                                                                                                                                                                                                   
00337775306       9999999999999999199999999999999991905261020400144 TJORGE IZAGUIRRE               JORGE                         IZAGUIRRE                     TORO                          143570591    270520193JR ALHELI NRO 880                                                                                                       3PISO ALT PUERTA 6 DE LA UNI                           L31       150135LIMA                          LIMA                          SAN MARTIN DE PORRES          982073384 MZ A LT 35 URB STA ROSA DE LIMA -                                                                                       ALT CDRA 15 AV ANGELICA GAMARRRA                       L39       150117LIMA                          LIMA                          LOS OLIVOS                    991664489 URB SANTA ROSA 35ALT CDRA 15 AV ANGELICA GAMARRA                                                                                                                               L39       150117LIMA                          LIMA                          LOS OLIVOS                    982073384                                         0                                                              0                      AMERICA MOVIL PERU S.A.C.                                   M            0000000000314988631AE304037           0327256    0           4969987          0204    1                                                                                                                  N                                                                                                                                                                                                                                                                                                                                                                                                                                                                                                                                   
00337775306       9999999999999999199999999999999991905261020400097 TMANUEL APARICIO               MANUEL                        APARICIO                      HERRERA                       144225967    260520191AH JESUS MARIA MZ N LT 17                                                                                                                                                      PI        200701PIURA                         TALARA                        PARIÑAS                       989800697 BR ESTIBADORES MZ N LT 17                                                                                               URB JESUS MARIA  POR LOS SERENAZGOS AL F               PI        200701PIURA                         TALARA                        PARIÑAS                       600000    AH JESUS MARIA MZ N LT 17                                                                                                                                                      PI              PIURA                         TALARA                        PARIÑAS                       942924390                                         0                                                              0                      JF SUR E.I.R.L                                              M            0000000000314988632AE304019           0327256    0           6423500          0204    1                                                                                                                  N                                                                                                                                                                                                                                                                                                                                                                                                                                                                                                                                   
00337775306       9999999999999999199999999999999991905261020400112 TJOSE SUASNABAR                JOSE                          SUASNABAR                     ZUÑIGA                        140228038    260520191JR LA JUSTICIA NRO 675 URB PRO                                                                                                                                                 L39       150117LIMA                          LIMA                          LOS OLIVOS                    987337290 JR LA JUSTICIA 675  INT/DPTO 4 PS URB PRA 2 CDRAS DE LA COMISARIA DE PRO                                                                                                       L39       150117LIMA                          LIMA                          LOS OLIVOS                    992755398 JR LA JUSTICIA NRO 675 URB PRO                                                                                                                                                 L39             LIMA                          LIMA                          LOS OLIVOS                    987337290                                         0                                                              0                      ZUÑIGA BUSTAMANTE GLORIA                                    M            0000000000314988633AE303948           0327256    0           7307734          0204    1                                                                                                                  N                                                                                                                                                                                                                                                                                                                                                                                                                                                                                                                                   
00337775306       9999999999999999199999999999999991905261020400072 TCARLOS RUIZ                   CARLOS ALBERTO                RUIZ                          VILCA                         170441170    260520191CL LEONARDO DA VINCI MZ 218 LT 00                                                                                                                                              L41       150130LIMA                          LIMA                          SAN BORJA                     956013557 CL LEONARDO DA VINCI MZ 218 LT 00                                                                                       ESPALDE DE CINE STAR DE AVIACION                       L41       150130LIMA                          LIMA                          SAN BORJA                     2260434   CL LEONARDO DA VINCI MZ 218 LT 00                                                                                                                                              L41             LIMA                          LIMA                          SAN BORJA                     956013557                                         0                                                              0                      NEXTEL DEL PERU S.A.                                        M            0000000000314988634AE304015           0327256    0           6550613          0204    1                                                                                                                  N                                                                                                                                                                                                                                                                                                                                                                                                                                                                                                                                   
00337775306       9999999999999999199999999999999991905261020400142 TMIRTHA VASQUEZ                MIRTHA                        VASQUEZ                       DE DIAZ                       115960869    270520191CL LAS CUCARDAS 13B MZ 13B LT 0                                                                                         ESQUINA DEL PODER JUDICIAL                             LM        150601LIMA                          HUARAL                        HUARAL                        946090331 AV PUNTA LOBO 208  INT/DPTO 301ALT CALLE HUAROC                                                                                                                                L33       150140LIMA                          LIMA                          SANTIAGO DE SURCO             995262653 CL LAS CUCARDAS 13B MZ 13B LT 0                                                                                         ESQUINA DEL PODER JUDICIAL                             LM              LIMA                          HUARAL                        HUARAL                        995262653                                         0                                                              0                      TRANSPORTE FLOMIR S.A.C.                                    M            0000000000314988635AE303980           0327256    0           7047525          0204    1                                                                                                                  N                                                                                                                                                                                                                                                                                                                                                                                                                                                                                                                                   
00337775306       9999999999999999199999999999999991905261020400093 TGLORIA RAFAEL                 GLORIA                        RAFAEL                        LOPEZ                         143992230    260520191AH 15 DE ENERO MZ Y LT 10                                                                                               KM 63 DE LA PANAMAMERICANA SUR                         CHI       150505LIMA                          CAÑETE                        CHILCA                        992062634                                                                                                                                                                                                                                                                                                    AH 15 DE ENERO MZ Y LT 10                                                                                               KM 63 DE LA PANAMAMERICANA SUR                         CHI             LIMA                          CAÑETE                        CHILCA                        986797123                                         0                                                              0                      MIBANCO - BANCO DE LA MICROEMPRESA S.A.                     M            0000000000314988636AE304044           0327256    0           4945697          0204    1                                                                                                                  N                                                                                                                                                                                                                                                                                                                                                                                                                                                                                                                                   
00337775306       9999999999999999199999999999999991905261020400086 TAUGUSTO EDGARD                EDGARD                        TACO                          COAGUILA                      141813208    260520191RE EL GOLF MZ B LT 14                                                                                                                                                          AQ        040122AREQUIPA                      AREQUIPA                      SOCABAYA                      950391823 AV INDEPENDENCIA AMERICANA MZ 13 LT 33 URB SELVA ALEGRE                                                                 DE LA COMISARIA DEL PUEBLO JOVEN INDEPEN               AQ        040102AREQUIPA                      AREQUIPA                      ALTO SELVA ALEGRE             979712877 RE EL GOLF MZ B LT 14                                                                                                                                                          AQ              AREQUIPA                      AREQUIPA                      SOCABAYA                      958513982                                         0                                                              0                      COMPARTAMOS FINANCIERA S.A.                                 M            0000000000314988637AE304043           0327256    0           4946646          0204    1                                                                                                                  N                                                                                                                                                                                                                                                                                                                                                                                                                                                                                                                                   
00337775306       9999999999999999199999999999999991905261020400150 TYAMANISHI JORGE               JORGE                         YAMANISHI                     TAKASHIMA                     140318396    270520191AV PIETRO TORRIYANA NRO 217 INT 201                                                                                                                                            L41       150130LIMA                          LIMA                          SAN BORJA                     997596107                                                                                                                                                                                                                                                                                          2659516   AV PIETRO TORRIYANA NRO 217 INT 201                                                                                                                                            L41             LIMA                          LIMA                          SAN BORJA                     994211745                                         0                                                              0                      YAMANISHI TAKASHIMA JORGE                                   M            0000000000314988638AE304024           0327256    0           6255414          0204    1                                                                                                                  N                                                                                                                                                                                                                                                                                                                                                                                                                                                                                                                                   
00337775306       9999999999999999199999999999999991905261020400055 TLAURENTE ANTONIA              ANTONIA                       LAURENTE                      TORNERO                       108870317    250520191AH LADERAS DE VILLA MZ LL LT 6                                                                                                                                                 L29       150133LIMA                          LIMA                          SAN JUAN DE MIRAFLORES        985330581 PRPRIVILANGO     216  NT   NT                                                                                                                                                  L13       150115LIMA                          LIMA                          LA VICTORIA                             AH LADERAS DE VILLA MZ LL LT 6                                                                                                                                                 L29             LIMA                          LIMA                          SAN JUAN DE MIRAFLORES        985330581                                         0                                                              0                      PERUVIAN KNITS SRL                                          M            0000000000314988639AE304000           0327256    0           6699606          0204    1                                                                                                                  N                                                                                                                                                                                                                                                                                                                                                                                                                                                                                                                                   
00337775404 0000019999999999999999199999999999999991905261020900005 TCATACHURA RUBEN               RUBEN                         CATACHURA                     VILCA                         109653735    250520193JR MARISCAL MILLER NRO 2576 INT E                                                                                                                                              L14       150116LIMA                          LIMA                          LINCE                         2660778   JR MARISCALL MILLER NRO 2576 INT E                                                                                      CUADRA 4 DE AVENIDA 2 DE MAYO                          L14       150116LIMA                          LIMA                          LINCE                         3881961   JR MARISCALL MILLER NRO 2576  MZA       LTE       INT E     URB                                                         CUADRA 4 DE AVENIDA 2 DE MAYO                          L14       150101LIMA                          LIMA                          LINCE                         946478797                                         0                                                              0                      CENCOSUD PERU S.A.                                          M            0000000000314988669AE304299           0327256    0           7439721          0209    2                                                                                                                  NS                                                                                                                                                                                                                                                                                                                                                                                                                                                                                                                                  
00347324504 0000019999999999999999299999999999999991905261012200003 TTORIBIO JORGE                 CARMEN                        SARMIENTO                     RIOS                          107616513    250520193JR MANUEL GOMEZ NRO 668                                                                                                 A ESPALDA DE RESGISTRO PUBLICOS                        L14       150116LIMA                          LIMA                          LINCE                         995642229                                                                                                                                                                                                                                                                                          4718461   JR MANUEL GOMEZ NRO 668                                                                                                 .                                                      L14             LIMA                          LIMA                          LINCE                         990208385                                         0                                                              0                      AOTS CONTABILIDAD ADMINISTRACION & NEGOC                    M            0000000000314988808AE304874           0327256    0           4744533          0122    2                                                                                                                  NS                                                                                                                                                                                                                                                                                                                                                                                                                                                                                                                                  
00349133706       9999999999999999299999999999999991905261010200018 TSANTOS CORNEJO                SANDRA                        PURIZAGA                      GARCIA                        144331812    250520191CL MIRAFLORES NRO 503                                                                                                   CERCA DEL CEMENTERIO EL CARMEN                         TB        240101TUMBES                        TUMBES                        TUMBES                        981003853 JR LORETO MZ SN LT 12                                                                                                                                                          TB        240101TUMBES                        TUMBES                        TUMBES                        600000    CL MIRAFLORES NRO 503                                                                                                   CERCA DEL CEMENTERIO EL CARMEN                         TB              TUMBES                        TUMBES                        TUMBES                        972979554                                         0                                                              0                                                                                  M            0000000000314988824AE304890           0327256    0           7434123          0102    1                                                                                                                  N                                                                                                                                                                                                                                                                                                                                                                                                                                                                                                                                   
00349133706       9999999999999999199999999999999991905261010200074 TCARMEN QUENTA                 CARMEN                        QUENTA                        TICONA                        178290193    250520191AS LAS VIÑAS MZ E LT 01                                                                                                                                                        TC        230110TACNA                         TACNA                         CORONEL GREGORIO ALBARRACIN LA929944863                                                                                                                                                                                                                                                                                          600000    AS LAS VIÑAS MZ E LT 01                                                                                                                                                        TC              TACNA                         TACNA                         CORONEL GREGORIO ALBARRACIN LA                                                  0                                                              0                                                                                  M            0000000000314988825AE304888           0327256    0           7436987          0102    1                                                                                                                  N                                                                                                                                                                                                                                                                                                                                                                                                                                                                                                                                   
00349133706       9999999999999999199999999999999991905261010200203 TVANESSA LOPEZ                 VANESSA                       LOPEZ                         ROJAS                         110659237    270520191CL ICAROS NRO 326                                                                                                       URB SAN ROQUE ENTRE HUANDOY CON AV CENTR               L39       150117LIMA                          LIMA                          LOS OLIVOS                    978219059                                                                                                                                                                                                                                                                                          5272401   CL ICAROS NRO 326                                                                                                       URB SAN ROQUE ENTRE HUANDOY CON AV CENTR               L39             LIMA                          LIMA                          LOS OLIVOS                                                                      0                                                              0                                                                                  M            0000000000314988826AE304887           0327256    0           7439047          0102    1                                                                                                                  N                                                                                                                                                                                                                                                                                                                                                                                                                                                                                                                                   
00349133706       9999999999999999199999999999999991905261010200026 TVICTOR OCHARAN                VICTOR                        OCHARAN                       CARDENAS                      107258757    250520191UR GUARDIA CIVIL MZ N LT 4                                                                                                                                                     AQ        040112AREQUIPA                      AREQUIPA                      PAUCARPATA                    987880986 UR GUARDIA CIVIL MZ N LT 4                                                                                              3 ETAPA ESPALDA MODULO DE JUSTICIA FRENT               AQ        040112AREQUIPA                      AREQUIPA                      PAUCARPATA                              UR GUARDIA CIVIL MZ N LT 4                                                                                                                                                     AQ              AREQUIPA                      AREQUIPA                      PAUCARPATA                    950934569                                         0                                                              0                                                                                  M            0000000000314988827AE304808           0327256    0           5276935          0102    1                                                                                                                  N                                                                                                                                                                                                                                                                                                                                                                                                                                                                                                                                   
00349133706       9999999999999999199999999999999991905261010200214 TGENARO PALOMINO               GENARO                        PALOMINO                      CAMACHO                       141140451    270520191JR LIBERTAD MZ H LT 7                                                                                                                                                          CU        080105CUSCO                         CUSCO                         SAN SEBASTIAN                 974778236 UR SAN FRANCISCO MZ H LT 7                                                                                                                                                     CU        080108CUSCO                         CUSCO                         WANCHAQ                                 JR LIBERTAD MZ H LT 7                                                                                                                                                          CU              CUSCO                         CUSCO                         SAN SEBASTIAN                 965385847                                         0                                                              0                      H & S TALLERES SOCIEDAD COMERCIAL DE RES                    M            0000000000314988828AE304825           0327256    0           4819374          0102    1                                                                                                                  N                                                                                                                                                                                                                                                                                                                                                                                                                                                                                                                                   
00349133706       9999999999999999299999999999999991905261010200029 TSAMUEL MENDOZA                ROSARIO                       PAREDES                       DAVILA                        110481562    250520191CL TRAPICHE NRO 178                                                                                                     CROSS                                                  L12       150114LIMA                          LIMA                          LA MOLINA                     936118734                                                                                                                                                                                                                                                                                          999583003 CL TRAPICHE NRO 178                                                                                                     CROSS                                                  L12             LIMA                          LIMA                          LA MOLINA                     962370116                                         0                                                              0                                                                                  M            0000000000314988830AE304756           0327256    0           7088383          0102    1                                                                                                                  N                                                                                                                                                                                                                                                                                                                                                                                                                                                                                                                                   
00349133706       9999999999999999199999999999999991905261010200001 TERNESTO CADILLO               ERNESTO                       CADILLO                       PANTOJA                       109434444    250520191JR MARIANO DE ANGULO 1689  PISO 2 URB MIRONES ALTOS                                                                     ALT PTE DUEÑAS                                         L01       150101LIMA                          LIMA                          LIMA                          997355068 JR MARIANO ANGULO NRO 1689 LT 2 URB MIRONES ALTOS                                                                                                                              L01       150101LIMA                          LIMA                          LIMA                          3670132   JR MARIANO DE ANGULO 1689  PISO 2 URB MIRONES ALTOS                                                                     ALT PTE DUEÑAS                                         L01             LIMA                          LIMA                          LIMA                          997355068                                         0                                                              0                      POLICIA NACIONAL DEL PERU                                   M            0000000000314988831AE304835           0327256    0           0902100          0102    1                                                                                                                  N                                                                                                                                                                                                                                                                                                                                                                                                                                                                                                                                   
00349133706       9999999999999999199999999999999991905261010200154 TDEBORA HUAMAN                 DEBORA                        HUAMAN                        JIMENEZ                       145106671    270520191UR SAN MARTIN DE PORRES MZ 148 LT 10                                                                                    ENTRE AV A Y AV BETANCURT A SPALDAS MERC               L39       150117LIMA                          LIMA                          LOS OLIVOS                    959176311                                                                                                                                                                                                                                                                                          6000000   UR SAN MARTIN DE PORRES MZ 148 LT 10                                                                                    ENTRE AV A Y AV BETANCURT A SPALDAS MERC               L39             LIMA                          LIMA                          LOS OLIVOS                                                                      0                                                              0                      NUESTRA SENORA DEL SAGRADO CORAZON                          M            0000000000314988832AE304900           0327256    0           7412408          0102    1                                                                                                                  N                                                                                                                                                                                                                                                                                                                                                                                                                                                                                                                                   
00349133706       9999999999999999199999999999999991905261010200173 TCARLOS DELACRUZ               CARLOS                        DE LA CRUZ                    GARCIA                        128303605    270520191PJ CACERES NRO 122                                                                                                                                                             AY        050110AYACUCHO                      HUAMANGA                      SAN JUAN BAUTISTA             952099686 PJ CACERES NRO 122                                                                                                      FRENTE A CARSA                                         AY        050110AYACUCHO                      HUAMANGA                      SAN JUAN BAUTISTA             314020    PJ CACERES NRO 122                                                                                                                                                             AY              AYACUCHO                      HUAMANGA                      SAN JUAN BAUTISTA             999007470                                         0                                                              0                                                                                  M            0000000000314988833AE304804           0327256    0           5332278          0102    1                                                                                                                  N                                                                                                                                                                                                                                                                                                                                                                                                                                                                                                                                   
00349133706       9999999999999999199999999999999991905261010200094 TENRIQUE INGA                  ENRIQUE                       INGA                          ACOSTA                        146056397    250520193AH INTEGRAL ALMIRANTE GRAU MZ A LT 3                                                                                                                                           L36       150132LIMA                          LIMA                          SAN JUAN DE LURIGANCHO        933693650 AH INTEG GRAU SEC LADERAS DE MOTUPE MZ A LT 3                                                                                                                                  L36       150132LIMA                          LIMA                          SAN JUAN DE LURIGANCHO        3193030   AH INTEGRAL ALMIRANTE GRAU MZ A LT 3                                                                                    ALT PDRO 4 AV MOTUPE                                   L36       150132LIMA                          LIMA                          SAN JUAN DE LURIGANCHO        993471780                                         0                                                              0                      CORPORACION WAMA S.A.C.                                     M            0000000000314988834AE304802           0327256    0           5398110          0102    1                                                                                                                  N                                                                                                                                                                                                                                                                                                                                                                                                                                                                                                                                   
00349133706       9999999999999999199999999999999991905261010200153 TDIALY MANOSALVA               DIALY                         MANOSALVA                     SANCHEZ                       171069773    270520193AV HUAROCHIRI MZ B1 LT 1                                                                                                                                                       L43       150137LIMA                          LIMA                          SANTA ANITA                   993005182 CL MAYORAZGO MZ Q LT 25 INT 301                                                                                                                                                L03       150103LIMA                          LIMA                          ATE                           4214470   AV HUAROCHIRI MZ B1 LT 1 URB COOP SANTA AURELIA                                                                         CRUCE AV METROPOLITANA                                 L43       150137LIMA                          LIMA                          SANTA ANITA                   966621865                                         0                                                              0                      INVERITAS GLOBAL HOLDINGS PERU S.A.                         M            0000000000314988835AE304944           0327256    0           7154971          0102    1                                                                                                                  N                                                                                                                                                                                                                                                                                                                                                                                                                                                                                                                                   
00349133706       9999999999999999199999999999999991905261010200022 TORLANDO PASTOR                ORLANDO                       PASTOR                        PECEROS                       140611590    250520191AG FAMILIAR LAS TRES CRUCES MZ 0 LT 8                                                                                                                                          L16       150119LIMA                          LIMA                          LURIN                         945351829 AG FAMILIAR LAS TRES CRUCES MZ 0 LT 8                                                                                   LOS SAUCES                                             L16       150119LIMA                          LIMA                          LURIN                         966383658 AG FAMILIAR LAS TRES CRUCES MZ 0 LT 8                                                                                                                                          L16             LIMA                          LIMA                          LURIN                         978766577                                         0                                                              0                                                                                  M            0000000000314988836AE304771           0327256    0           6775116          0102    1                                                                                                                  N                                                                                                                                                                                                                                                                                                                                                                                                                                                                                                                                   
00349133706       9999999999999999199999999999999991905261010200009 TCARMEN GARCIA                 CARMEN                        GARCIA                        CISNEROS                      109353235    250520191AV BUENOS AIRES DE VILLA MZ 67 LT 2A                                                                                                                                           L09       150108LIMA                          LIMA                          CHORRILLOS                    999535634                                                                                                                                                                                                                                                                                          946280520 AV BUENOS AIRES DE VILLA MZ 67 LT 2A                                                                                                                                           L09             LIMA                          LIMA                          CHORRILLOS                    999535634                                         0                                                              0                      SAN FERNANDO                                                M            0000000000314988837AE304785           0327256    0           6563268          0102    1                                                                                                                  N                                                                                                                                                                                                                                                                                                                                                                                                                                                                                                                                   
00349133706       9999999999999999199999999999999991905261010200093 TRAQUEL ARAUJO                 RAQUEL                        ARAUJO                        SEBASTIAN                     142165742    250520191AS PRO VIV AYACUCHO MZ Ñ LT 19                                                                                                                                                 L36       150132LIMA                          LIMA                          SAN JUAN DE LURIGANCHO        995076585 AS PRO VIVI AYACUCHO MZ Ñ LT 19 INT 0                                                                                                                                          L36       150132LIMA                          LIMA                          SAN JUAN DE LURIGANCHO        3892232   AS PRO VIV AYACUCHO MZ Ñ LT 19                                                                                                                                                 L36             LIMA                          LIMA                          SAN JUAN DE LURIGANCHO        993011515                                         0                                                              0                      CAJA MUNICIPAL DE AHORRO Y CREDITO CUSCO                    M            0000000000314988838AE304815           0327256    0           5132523          0102    1                                                                                                                  N                                                                                                                                                                                                                                                                                                                                                                                                                                                                                                                                   
00349133706       9999999999999999199999999999999991905261010200115 TMARIA LUQUE                   MARIA                         LUQUE                         DELGADO                       104421169    260520191UR JARDINES DE SHANGRILA MZ M LT 15                                                                                                                                            L22       150125LIMA                          LIMA                          PUENTE PIEDRA                 981304456 UR JARDINES CHANGRILA MZ M LT 15                                                                                        ALTURA DE CAMPO FE                                     L22       150125LIMA                          LIMA                          PUENTE PIEDRA                 980808597 UR JARDINES DE SHANGRILA MZ M LT 15                                                                                                                                            L22             LIMA                          LIMA                          PUENTE PIEDRA                 953799808                                         0                                                              0                      LUQUE DELGADO MARIA LUPE                                    M            0000000000314988839AE304829           0327256    0           3835744          0102    1                                                                                                                  N                                                                                                                                                                                                                                                                                                                                                                                                                                                                                                                                   
00349133706       9999999999999999199999999999999991905261010200025 TJENNY TORRES                  JENNY                         TORRES                        INGARUCA                      140519244    250520193CL UNO MZ F LT 4                                                                                                                                                               L31       150135LIMA                          LIMA                          SAN MARTIN DE PORRES          979292568 AV GERMAN AGUIRRE 555B SAN GERMAN                                                                                       ALT CDRA 8 AV TOMAS VALLE                              L31       150135LIMA                          LIMA                          SAN MARTIN DE PORRES          990002315 JR SAN AMADEO 468CRUCE CON AV VILLAVERDE                                                                                                                                       L31       150135LIMA                          LIMA                          SAN MARTIN DE PORRES          971440090                                         0                                                              0                      TORRES INGARUCA JENNY MARILU                                M            0000000000314988840AE304922           0327256    0           7286035          0102    1                                                                                                                  N                                                                                                                                                                                                                                                                                                                                                                                                                                                                                                                                   
00349133706       9999999999999999299999999999999991905261010200004 TCANAZA MARCO                  FABIOLA                       VALDIVIA                      QUISPE                        172758292    250520191SD UPIS PAISAJISTA MZ A LT 10                                                                                                                                                  AQ        040107AREQUIPA                      AREQUIPA                      JACOBO HUNTER                 943945046                                                                                                                                                                                                                                                                                                    SD UPIS PAISAJISTA MZ A LT 10                                                                                                                                                  AQ              AREQUIPA                      AREQUIPA                      JACOBO HUNTER                                                                   0                                                              0                      MUNICIPALIDAD PROVINCIAL DE AREQUIPA                        M            0000000000314988841AE304921           0327256    0           7300242          0102    1                                                                                                                  N                                                                                                                                                                                                                                                                                                                                                                                                                                                                                                                                   
00349133706       9999999999999999199999999999999991905261010200223 TVILA TEDY                     TEDY                          VILA                          FUENTES                       141665835    270520191JR REPUBLICA DE GUATEMALA NRO 325                                                                                                                                              C03       070103CALLAO                        CALLAO                        CARMEN DE LA LEGUA REYNOSO    966388419 CL LOS LIRIOS MZ S 2 LT 14 INT A URB EL GOLF DE SANTA ROSA                                                              ALTURA DEL BALNEARIO DE SANTA ROSA                     L38       150139LIMA                          LIMA                          SANTA ROSA                    992770543 JR REPUBLICA DE GUATEMALA NRO 325                                                                                                                                              C03             CALLAO                        CALLAO                        CARMEN DE LA LEGUA REYNOSO    993074451                                         0                                                              0                      NEPTUNIA S A                                                M            0000000000314988842AE304939           0327256    0           7177549          0102    1                                                                                                                  N                                                                                                                                                                                                                                                                                                                                                                                                                                                                                                                                   
00349133706       9999999999999999199999999999999991905261010200168 TMARLON PEREZ                  MARLON                        PEREZ                         NUÑEZ                         141518399    270520191JR LOS ARRAYANES NRO 840 URB LAS VIOLETAS                                                                               ALT TOTTUS DE AV LOS TUSILAGOS                         L36       150132LIMA                          LIMA                          SAN JUAN DE LURIGANCHO        961091899                                                                                                                                                                                                                                                                                          997766961 JR LOS ARRAYANES NRO 840 URB LAS VIOLETAS                                                                               ALT TOTTUS DE AV LOS TUSILAGOS                         L36             LIMA                          LIMA                          SAN JUAN DE LURIGANCHO                                                          0                                                              0                      PEREZ NUÑEZ MARLON ISAAC                                    M            0000000000314988843AE304891           0327256    0           7432204          0102    1                                                                                                                  N                                                                                                                                                                                                                                                                                                                                                                                                                                                                                                                                   
00349133706       9999999999999999199999999999999991905261010200019 TDANIEL RAMIREZ                DANIEL                        RAMIREZ                       ROJAS                         143699999    250520191PJ LAS MARTICARIAS NRO 1501                                                                                                                                                    L36       150132LIMA                          LIMA                          SAN JUAN DE LURIGANCHO        939183510                                                                                                                                                                                                                                                                                          3746969   PJ LAS MARTICARIAS NRO 1501                                                                                                                                                    L36             LIMA                          LIMA                          SAN JUAN DE LURIGANCHO        992840603                                         0                                                              0                      BANCO FALABELLA PERU S.A                                    M            0000000000314988844AE304918           0327256    0           7314739          0102    1                                                                                                                  N                                                                                                                                                                                                                                                                                                                                                                                                                                                                                                                                   
00349133706       9999999999999999199999999999999991905261010200103 TRAMIREZ JUAN                  JUAN                          RAMIREZ                       MORE                          103643739    260520191AV HURIN CUZCO NRO 145                                                                                                                                                         L28       150112LIMA                          LIMA                          INDEPENDENCIA                 989224977 AV HURIN CUZCO NRO 145                                                                                                  URB TAHUANNTINSUYO ALTURA DEL PODER JUDI               L28       150112LIMA                          LIMA                          INDEPENDENCIA                           AV HURIN CUZCO NRO 145                                                                                                                                                         L28             LIMA                          LIMA                          INDEPENDENCIA                 958962856                                         0                                                              0                      PESQUERA DIAMANTE S.A.                                      M            0000000000314988845AE304764           0327256    0           7058553          0102    1                                                                                                                  N                                                                                                                                                                                                                                                                                                                                                                                                                                                                                                                                   
